{
	"Users/carlos/dev/apps/solidity-apps/09-errors.sol": {
		"Asset": {
			"abi": [
				{
					"inputs": [
						{
							"internalType": "uint256",
							"name": "_state",
							"type": "uint256"
						}
					],
					"name": "StateNotDefined",
					"type": "error"
				},
				{
					"inputs": [
						{
							"internalType": "uint256",
							"name": "_state",
							"type": "uint256"
						}
					],
					"name": "changeState",
					"outputs": [],
					"stateMutability": "nonpayable",
					"type": "function"
				},
				{
					"inputs": [],
					"name": "state",
					"outputs": [
						{
							"internalType": "string",
							"name": "",
							"type": "string"
						}
					],
					"stateMutability": "view",
					"type": "function"
				}
			],
			"devdoc": {
				"kind": "dev",
				"methods": {},
				"version": 1
			},
			"evm": {
				"assembly": "    /* \"Users/carlos/dev/apps/solidity-apps/09-errors.sol\":475:818  contract Asset {... */\n  mstore(0x40, 0x80)\n    /* \"Users/carlos/dev/apps/solidity-apps/09-errors.sol\":496:526  string public state = 'onSale' */\n  mload(0x40)\n  dup1\n  0x40\n  add\n  0x40\n  mstore\n  dup1\n  0x06\n  dup2\n  mstore\n  0x20\n  add\n  0x6f6e53616c650000000000000000000000000000000000000000000000000000\n  dup2\n  mstore\n  pop\n  0x00\n  swap1\n  dup2\n  tag_1\n  swap2\n  swap1\n  tag_2\n  jump\t// in\ntag_1:\n  pop\n    /* \"Users/carlos/dev/apps/solidity-apps/09-errors.sol\":475:818  contract Asset {... */\n  callvalue\n  dup1\n  iszero\n  tag_3\n  jumpi\n  0x00\n  dup1\n  revert\ntag_3:\n  pop\n  jump(tag_4)\n    /* \"#utility.yul\":7:106   */\ntag_5:\n    /* \"#utility.yul\":59:65   */\n  0x00\n    /* \"#utility.yul\":93:98   */\n  dup2\n    /* \"#utility.yul\":87:99   */\n  mload\n    /* \"#utility.yul\":77:99   */\n  swap1\n  pop\n    /* \"#utility.yul\":7:106   */\n  swap2\n  swap1\n  pop\n  jump\t// out\n    /* \"#utility.yul\":112:292   */\ntag_6:\n    /* \"#utility.yul\":160:237   */\n  0x4e487b7100000000000000000000000000000000000000000000000000000000\n    /* \"#utility.yul\":157:158   */\n  0x00\n    /* \"#utility.yul\":150:238   */\n  mstore\n    /* \"#utility.yul\":257:261   */\n  0x41\n    /* \"#utility.yul\":254:255   */\n  0x04\n    /* \"#utility.yul\":247:262   */\n  mstore\n    /* \"#utility.yul\":281:285   */\n  0x24\n    /* \"#utility.yul\":278:279   */\n  0x00\n    /* \"#utility.yul\":271:286   */\n  revert\n    /* \"#utility.yul\":298:478   */\ntag_7:\n    /* \"#utility.yul\":346:423   */\n  0x4e487b7100000000000000000000000000000000000000000000000000000000\n    /* \"#utility.yul\":343:344   */\n  0x00\n    /* \"#utility.yul\":336:424   */\n  mstore\n    /* \"#utility.yul\":443:447   */\n  0x22\n    /* \"#utility.yul\":440:441   */\n  0x04\n    /* \"#utility.yul\":433:448   */\n  mstore\n    /* \"#utility.yul\":467:471   */\n  0x24\n    /* \"#utility.yul\":464:465   */\n  0x00\n    /* \"#utility.yul\":457:472   */\n  revert\n    /* \"#utility.yul\":484:804   */\ntag_8:\n    /* \"#utility.yul\":528:534   */\n  0x00\n    /* \"#utility.yul\":565:566   */\n  0x02\n    /* \"#utility.yul\":559:563   */\n  dup3\n    /* \"#utility.yul\":555:567   */\n  div\n    /* \"#utility.yul\":545:567   */\n  swap1\n  pop\n    /* \"#utility.yul\":612:613   */\n  0x01\n    /* \"#utility.yul\":606:610   */\n  dup3\n    /* \"#utility.yul\":602:614   */\n  and\n    /* \"#utility.yul\":633:651   */\n  dup1\n    /* \"#utility.yul\":623:704   */\n  tag_30\n  jumpi\n    /* \"#utility.yul\":689:693   */\n  0x7f\n    /* \"#utility.yul\":681:687   */\n  dup3\n    /* \"#utility.yul\":677:694   */\n  and\n    /* \"#utility.yul\":667:694   */\n  swap2\n  pop\n    /* \"#utility.yul\":623:704   */\ntag_30:\n    /* \"#utility.yul\":751:753   */\n  0x20\n    /* \"#utility.yul\":743:749   */\n  dup3\n    /* \"#utility.yul\":740:754   */\n  lt\n    /* \"#utility.yul\":720:738   */\n  dup2\n    /* \"#utility.yul\":717:755   */\n  sub\n    /* \"#utility.yul\":714:798   */\n  tag_31\n  jumpi\n    /* \"#utility.yul\":770:788   */\n  tag_32\n  tag_7\n  jump\t// in\ntag_32:\n    /* \"#utility.yul\":714:798   */\ntag_31:\n    /* \"#utility.yul\":535:804   */\n  pop\n    /* \"#utility.yul\":484:804   */\n  swap2\n  swap1\n  pop\n  jump\t// out\n    /* \"#utility.yul\":810:951   */\ntag_9:\n    /* \"#utility.yul\":859:863   */\n  0x00\n    /* \"#utility.yul\":882:885   */\n  dup2\n    /* \"#utility.yul\":874:885   */\n  swap1\n  pop\n    /* \"#utility.yul\":905:908   */\n  dup2\n    /* \"#utility.yul\":902:903   */\n  0x00\n    /* \"#utility.yul\":895:909   */\n  mstore\n    /* \"#utility.yul\":939:943   */\n  0x20\n    /* \"#utility.yul\":936:937   */\n  0x00\n    /* \"#utility.yul\":926:944   */\n  keccak256\n    /* \"#utility.yul\":918:944   */\n  swap1\n  pop\n    /* \"#utility.yul\":810:951   */\n  swap2\n  swap1\n  pop\n  jump\t// out\n    /* \"#utility.yul\":957:1050   */\ntag_10:\n    /* \"#utility.yul\":994:1000   */\n  0x00\n    /* \"#utility.yul\":1041:1043   */\n  0x20\n    /* \"#utility.yul\":1036:1038   */\n  0x1f\n    /* \"#utility.yul\":1029:1034   */\n  dup4\n    /* \"#utility.yul\":1025:1039   */\n  add\n    /* \"#utility.yul\":1021:1044   */\n  div\n    /* \"#utility.yul\":1011:1044   */\n  swap1\n  pop\n    /* \"#utility.yul\":957:1050   */\n  swap2\n  swap1\n  pop\n  jump\t// out\n    /* \"#utility.yul\":1056:1163   */\ntag_11:\n    /* \"#utility.yul\":1100:1108   */\n  0x00\n    /* \"#utility.yul\":1150:1155   */\n  dup3\n    /* \"#utility.yul\":1144:1148   */\n  dup3\n    /* \"#utility.yul\":1140:1156   */\n  shl\n    /* \"#utility.yul\":1119:1156   */\n  swap1\n  pop\n    /* \"#utility.yul\":1056:1163   */\n  swap3\n  swap2\n  pop\n  pop\n  jump\t// out\n    /* \"#utility.yul\":1169:1562   */\ntag_12:\n    /* \"#utility.yul\":1238:1244   */\n  0x00\n    /* \"#utility.yul\":1288:1289   */\n  0x08\n    /* \"#utility.yul\":1276:1286   */\n  dup4\n    /* \"#utility.yul\":1272:1290   */\n  mul\n    /* \"#utility.yul\":1311:1408   */\n  tag_37\n    /* \"#utility.yul\":1341:1407   */\n  0xffffffffffffffffffffffffffffffffffffffffffffffffffffffffffffffff\n    /* \"#utility.yul\":1330:1339   */\n  dup3\n    /* \"#utility.yul\":1311:1408   */\n  tag_11\n  jump\t// in\ntag_37:\n    /* \"#utility.yul\":1429:1468   */\n  tag_38\n    /* \"#utility.yul\":1459:1467   */\n  dup7\n    /* \"#utility.yul\":1448:1457   */\n  dup4\n    /* \"#utility.yul\":1429:1468   */\n  tag_11\n  jump\t// in\ntag_38:\n    /* \"#utility.yul\":1417:1468   */\n  swap6\n  pop\n    /* \"#utility.yul\":1501:1505   */\n  dup1\n    /* \"#utility.yul\":1497:1506   */\n  not\n    /* \"#utility.yul\":1490:1495   */\n  dup5\n    /* \"#utility.yul\":1486:1507   */\n  and\n    /* \"#utility.yul\":1477:1507   */\n  swap4\n  pop\n    /* \"#utility.yul\":1550:1554   */\n  dup1\n    /* \"#utility.yul\":1540:1548   */\n  dup7\n    /* \"#utility.yul\":1536:1555   */\n  and\n    /* \"#utility.yul\":1529:1534   */\n  dup5\n    /* \"#utility.yul\":1526:1556   */\n  or\n    /* \"#utility.yul\":1516:1556   */\n  swap3\n  pop\n    /* \"#utility.yul\":1245:1562   */\n  pop\n  pop\n    /* \"#utility.yul\":1169:1562   */\n  swap4\n  swap3\n  pop\n  pop\n  pop\n  jump\t// out\n    /* \"#utility.yul\":1568:1645   */\ntag_13:\n    /* \"#utility.yul\":1605:1612   */\n  0x00\n    /* \"#utility.yul\":1634:1639   */\n  dup2\n    /* \"#utility.yul\":1623:1639   */\n  swap1\n  pop\n    /* \"#utility.yul\":1568:1645   */\n  swap2\n  swap1\n  pop\n  jump\t// out\n    /* \"#utility.yul\":1651:1711   */\ntag_14:\n    /* \"#utility.yul\":1679:1682   */\n  0x00\n    /* \"#utility.yul\":1700:1705   */\n  dup2\n    /* \"#utility.yul\":1693:1705   */\n  swap1\n  pop\n    /* \"#utility.yul\":1651:1711   */\n  swap2\n  swap1\n  pop\n  jump\t// out\n    /* \"#utility.yul\":1717:1859   */\ntag_15:\n    /* \"#utility.yul\":1767:1776   */\n  0x00\n    /* \"#utility.yul\":1800:1853   */\n  tag_42\n    /* \"#utility.yul\":1818:1852   */\n  tag_43\n    /* \"#utility.yul\":1827:1851   */\n  tag_44\n    /* \"#utility.yul\":1845:1850   */\n  dup5\n    /* \"#utility.yul\":1827:1851   */\n  tag_13\n  jump\t// in\ntag_44:\n    /* \"#utility.yul\":1818:1852   */\n  tag_14\n  jump\t// in\ntag_43:\n    /* \"#utility.yul\":1800:1853   */\n  tag_13\n  jump\t// in\ntag_42:\n    /* \"#utility.yul\":1787:1853   */\n  swap1\n  pop\n    /* \"#utility.yul\":1717:1859   */\n  swap2\n  swap1\n  pop\n  jump\t// out\n    /* \"#utility.yul\":1865:1940   */\ntag_16:\n    /* \"#utility.yul\":1908:1911   */\n  0x00\n    /* \"#utility.yul\":1929:1934   */\n  dup2\n    /* \"#utility.yul\":1922:1934   */\n  swap1\n  pop\n    /* \"#utility.yul\":1865:1940   */\n  swap2\n  swap1\n  pop\n  jump\t// out\n    /* \"#utility.yul\":1946:2215   */\ntag_17:\n    /* \"#utility.yul\":2056:2095   */\n  tag_47\n    /* \"#utility.yul\":2087:2094   */\n  dup4\n    /* \"#utility.yul\":2056:2095   */\n  tag_15\n  jump\t// in\ntag_47:\n    /* \"#utility.yul\":2117:2208   */\n  tag_48\n    /* \"#utility.yul\":2166:2207   */\n  tag_49\n    /* \"#utility.yul\":2190:2206   */\n  dup3\n    /* \"#utility.yul\":2166:2207   */\n  tag_16\n  jump\t// in\ntag_49:\n    /* \"#utility.yul\":2158:2164   */\n  dup5\n    /* \"#utility.yul\":2151:2155   */\n  dup5\n    /* \"#utility.yul\":2145:2156   */\n  sload\n    /* \"#utility.yul\":2117:2208   */\n  tag_12\n  jump\t// in\ntag_48:\n    /* \"#utility.yul\":2111:2115   */\n  dup3\n    /* \"#utility.yul\":2104:2209   */\n  sstore\n    /* \"#utility.yul\":2022:2215   */\n  pop\n    /* \"#utility.yul\":1946:2215   */\n  pop\n  pop\n  pop\n  jump\t// out\n    /* \"#utility.yul\":2221:2294   */\ntag_18:\n    /* \"#utility.yul\":2266:2269   */\n  0x00\n    /* \"#utility.yul\":2221:2294   */\n  swap1\n  jump\t// out\n    /* \"#utility.yul\":2300:2489   */\ntag_19:\n    /* \"#utility.yul\":2377:2409   */\n  tag_52\n  tag_18\n  jump\t// in\ntag_52:\n    /* \"#utility.yul\":2418:2483   */\n  tag_53\n    /* \"#utility.yul\":2476:2482   */\n  dup2\n    /* \"#utility.yul\":2468:2474   */\n  dup5\n    /* \"#utility.yul\":2462:2466   */\n  dup5\n    /* \"#utility.yul\":2418:2483   */\n  tag_17\n  jump\t// in\ntag_53:\n    /* \"#utility.yul\":2353:2489   */\n  pop\n    /* \"#utility.yul\":2300:2489   */\n  pop\n  pop\n  jump\t// out\n    /* \"#utility.yul\":2495:2681   */\ntag_20:\n    /* \"#utility.yul\":2555:2675   */\ntag_55:\n    /* \"#utility.yul\":2572:2575   */\n  dup2\n    /* \"#utility.yul\":2565:2570   */\n  dup2\n    /* \"#utility.yul\":2562:2576   */\n  lt\n    /* \"#utility.yul\":2555:2675   */\n  iszero\n  tag_57\n  jumpi\n    /* \"#utility.yul\":2626:2665   */\n  tag_58\n    /* \"#utility.yul\":2663:2664   */\n  0x00\n    /* \"#utility.yul\":2656:2661   */\n  dup3\n    /* \"#utility.yul\":2626:2665   */\n  tag_19\n  jump\t// in\ntag_58:\n    /* \"#utility.yul\":2599:2600   */\n  0x01\n    /* \"#utility.yul\":2592:2597   */\n  dup2\n    /* \"#utility.yul\":2588:2601   */\n  add\n    /* \"#utility.yul\":2579:2601   */\n  swap1\n  pop\n    /* \"#utility.yul\":2555:2675   */\n  jump(tag_55)\ntag_57:\n    /* \"#utility.yul\":2495:2681   */\n  pop\n  pop\n  jump\t// out\n    /* \"#utility.yul\":2687:3230   */\ntag_21:\n    /* \"#utility.yul\":2788:2790   */\n  0x1f\n    /* \"#utility.yul\":2783:2786   */\n  dup3\n    /* \"#utility.yul\":2780:2791   */\n  gt\n    /* \"#utility.yul\":2777:3223   */\n  iszero\n  tag_60\n  jumpi\n    /* \"#utility.yul\":2822:2860   */\n  tag_61\n    /* \"#utility.yul\":2854:2859   */\n  dup2\n    /* \"#utility.yul\":2822:2860   */\n  tag_9\n  jump\t// in\ntag_61:\n    /* \"#utility.yul\":2906:2935   */\n  tag_62\n    /* \"#utility.yul\":2924:2934   */\n  dup5\n    /* \"#utility.yul\":2906:2935   */\n  tag_10\n  jump\t// in\ntag_62:\n    /* \"#utility.yul\":2896:2904   */\n  dup2\n    /* \"#utility.yul\":2892:2936   */\n  add\n    /* \"#utility.yul\":3089:3091   */\n  0x20\n    /* \"#utility.yul\":3077:3087   */\n  dup6\n    /* \"#utility.yul\":3074:3092   */\n  lt\n    /* \"#utility.yul\":3071:3120   */\n  iszero\n  tag_63\n  jumpi\n    /* \"#utility.yul\":3110:3118   */\n  dup2\n    /* \"#utility.yul\":3095:3118   */\n  swap1\n  pop\n    /* \"#utility.yul\":3071:3120   */\ntag_63:\n    /* \"#utility.yul\":3133:3213   */\n  tag_64\n    /* \"#utility.yul\":3189:3211   */\n  tag_65\n    /* \"#utility.yul\":3207:3210   */\n  dup6\n    /* \"#utility.yul\":3189:3211   */\n  tag_10\n  jump\t// in\ntag_65:\n    /* \"#utility.yul\":3179:3187   */\n  dup4\n    /* \"#utility.yul\":3175:3212   */\n  add\n    /* \"#utility.yul\":3162:3173   */\n  dup3\n    /* \"#utility.yul\":3133:3213   */\n  tag_20\n  jump\t// in\ntag_64:\n    /* \"#utility.yul\":2792:3223   */\n  pop\n  pop\n    /* \"#utility.yul\":2777:3223   */\ntag_60:\n    /* \"#utility.yul\":2687:3230   */\n  pop\n  pop\n  pop\n  jump\t// out\n    /* \"#utility.yul\":3236:3353   */\ntag_22:\n    /* \"#utility.yul\":3290:3298   */\n  0x00\n    /* \"#utility.yul\":3340:3345   */\n  dup3\n    /* \"#utility.yul\":3334:3338   */\n  dup3\n    /* \"#utility.yul\":3330:3346   */\n  shr\n    /* \"#utility.yul\":3309:3346   */\n  swap1\n  pop\n    /* \"#utility.yul\":3236:3353   */\n  swap3\n  swap2\n  pop\n  pop\n  jump\t// out\n    /* \"#utility.yul\":3359:3528   */\ntag_23:\n    /* \"#utility.yul\":3403:3409   */\n  0x00\n    /* \"#utility.yul\":3436:3487   */\n  tag_68\n    /* \"#utility.yul\":3484:3485   */\n  0x00\n    /* \"#utility.yul\":3480:3486   */\n  not\n    /* \"#utility.yul\":3472:3477   */\n  dup5\n    /* \"#utility.yul\":3469:3470   */\n  0x08\n    /* \"#utility.yul\":3465:3478   */\n  mul\n    /* \"#utility.yul\":3436:3487   */\n  tag_22\n  jump\t// in\ntag_68:\n    /* \"#utility.yul\":3432:3488   */\n  not\n    /* \"#utility.yul\":3517:3521   */\n  dup1\n    /* \"#utility.yul\":3511:3515   */\n  dup4\n    /* \"#utility.yul\":3507:3522   */\n  and\n    /* \"#utility.yul\":3497:3522   */\n  swap2\n  pop\n    /* \"#utility.yul\":3410:3528   */\n  pop\n    /* \"#utility.yul\":3359:3528   */\n  swap3\n  swap2\n  pop\n  pop\n  jump\t// out\n    /* \"#utility.yul\":3533:3828   */\ntag_24:\n    /* \"#utility.yul\":3609:3613   */\n  0x00\n    /* \"#utility.yul\":3755:3784   */\n  tag_70\n    /* \"#utility.yul\":3780:3783   */\n  dup4\n    /* \"#utility.yul\":3774:3778   */\n  dup4\n    /* \"#utility.yul\":3755:3784   */\n  tag_23\n  jump\t// in\ntag_70:\n    /* \"#utility.yul\":3747:3784   */\n  swap2\n  pop\n    /* \"#utility.yul\":3817:3820   */\n  dup3\n    /* \"#utility.yul\":3814:3815   */\n  0x02\n    /* \"#utility.yul\":3810:3821   */\n  mul\n    /* \"#utility.yul\":3804:3808   */\n  dup3\n    /* \"#utility.yul\":3801:3822   */\n  or\n    /* \"#utility.yul\":3793:3822   */\n  swap1\n  pop\n    /* \"#utility.yul\":3533:3828   */\n  swap3\n  swap2\n  pop\n  pop\n  jump\t// out\n    /* \"#utility.yul\":3833:5228   */\ntag_2:\n    /* \"#utility.yul\":3950:3987   */\n  tag_72\n    /* \"#utility.yul\":3983:3986   */\n  dup3\n    /* \"#utility.yul\":3950:3987   */\n  tag_5\n  jump\t// in\ntag_72:\n    /* \"#utility.yul\":4052:4070   */\n  0xffffffffffffffff\n    /* \"#utility.yul\":4044:4050   */\n  dup2\n    /* \"#utility.yul\":4041:4071   */\n  gt\n    /* \"#utility.yul\":4038:4094   */\n  iszero\n  tag_73\n  jumpi\n    /* \"#utility.yul\":4074:4092   */\n  tag_74\n  tag_6\n  jump\t// in\ntag_74:\n    /* \"#utility.yul\":4038:4094   */\ntag_73:\n    /* \"#utility.yul\":4118:4156   */\n  tag_75\n    /* \"#utility.yul\":4150:4154   */\n  dup3\n    /* \"#utility.yul\":4144:4155   */\n  sload\n    /* \"#utility.yul\":4118:4156   */\n  tag_8\n  jump\t// in\ntag_75:\n    /* \"#utility.yul\":4203:4270   */\n  tag_76\n    /* \"#utility.yul\":4263:4269   */\n  dup3\n    /* \"#utility.yul\":4255:4261   */\n  dup3\n    /* \"#utility.yul\":4249:4253   */\n  dup6\n    /* \"#utility.yul\":4203:4270   */\n  tag_21\n  jump\t// in\ntag_76:\n    /* \"#utility.yul\":4297:4298   */\n  0x00\n    /* \"#utility.yul\":4321:4325   */\n  0x20\n    /* \"#utility.yul\":4308:4325   */\n  swap1\n  pop\n    /* \"#utility.yul\":4353:4355   */\n  0x1f\n    /* \"#utility.yul\":4345:4351   */\n  dup4\n    /* \"#utility.yul\":4342:4356   */\n  gt\n    /* \"#utility.yul\":4370:4371   */\n  0x01\n    /* \"#utility.yul\":4365:4983   */\n  dup2\n  eq\n  tag_78\n  jumpi\n    /* \"#utility.yul\":5027:5028   */\n  0x00\n    /* \"#utility.yul\":5044:5050   */\n  dup5\n    /* \"#utility.yul\":5041:5118   */\n  iszero\n  tag_79\n  jumpi\n    /* \"#utility.yul\":5093:5102   */\n  dup3\n    /* \"#utility.yul\":5088:5091   */\n  dup8\n    /* \"#utility.yul\":5084:5103   */\n  add\n    /* \"#utility.yul\":5078:5104   */\n  mload\n    /* \"#utility.yul\":5069:5104   */\n  swap1\n  pop\n    /* \"#utility.yul\":5041:5118   */\ntag_79:\n    /* \"#utility.yul\":5144:5211   */\n  tag_80\n    /* \"#utility.yul\":5204:5210   */\n  dup6\n    /* \"#utility.yul\":5197:5202   */\n  dup3\n    /* \"#utility.yul\":5144:5211   */\n  tag_24\n  jump\t// in\ntag_80:\n    /* \"#utility.yul\":5138:5142   */\n  dup7\n    /* \"#utility.yul\":5131:5212   */\n  sstore\n    /* \"#utility.yul\":5000:5222   */\n  pop\n    /* \"#utility.yul\":4335:5222   */\n  jump(tag_77)\n    /* \"#utility.yul\":4365:4983   */\ntag_78:\n    /* \"#utility.yul\":4417:4421   */\n  0x1f\n    /* \"#utility.yul\":4413:4422   */\n  not\n    /* \"#utility.yul\":4405:4411   */\n  dup5\n    /* \"#utility.yul\":4401:4423   */\n  and\n    /* \"#utility.yul\":4451:4488   */\n  tag_81\n    /* \"#utility.yul\":4483:4487   */\n  dup7\n    /* \"#utility.yul\":4451:4488   */\n  tag_9\n  jump\t// in\ntag_81:\n    /* \"#utility.yul\":4510:4511   */\n  0x00\n    /* \"#utility.yul\":4524:4732   */\ntag_82:\n    /* \"#utility.yul\":4538:4545   */\n  dup3\n    /* \"#utility.yul\":4535:4536   */\n  dup2\n    /* \"#utility.yul\":4532:4546   */\n  lt\n    /* \"#utility.yul\":4524:4732   */\n  iszero\n  tag_84\n  jumpi\n    /* \"#utility.yul\":4617:4626   */\n  dup5\n    /* \"#utility.yul\":4612:4615   */\n  dup10\n    /* \"#utility.yul\":4608:4627   */\n  add\n    /* \"#utility.yul\":4602:4628   */\n  mload\n    /* \"#utility.yul\":4594:4600   */\n  dup3\n    /* \"#utility.yul\":4587:4629   */\n  sstore\n    /* \"#utility.yul\":4668:4669   */\n  0x01\n    /* \"#utility.yul\":4660:4666   */\n  dup3\n    /* \"#utility.yul\":4656:4670   */\n  add\n    /* \"#utility.yul\":4646:4670   */\n  swap2\n  pop\n    /* \"#utility.yul\":4715:4717   */\n  0x20\n    /* \"#utility.yul\":4704:4713   */\n  dup6\n    /* \"#utility.yul\":4700:4718   */\n  add\n    /* \"#utility.yul\":4687:4718   */\n  swap5\n  pop\n    /* \"#utility.yul\":4561:4565   */\n  0x20\n    /* \"#utility.yul\":4558:4559   */\n  dup2\n    /* \"#utility.yul\":4554:4566   */\n  add\n    /* \"#utility.yul\":4549:4566   */\n  swap1\n  pop\n    /* \"#utility.yul\":4524:4732   */\n  jump(tag_82)\ntag_84:\n    /* \"#utility.yul\":4760:4766   */\n  dup7\n    /* \"#utility.yul\":4751:4758   */\n  dup4\n    /* \"#utility.yul\":4748:4767   */\n  lt\n    /* \"#utility.yul\":4745:4924   */\n  iszero\n  tag_85\n  jumpi\n    /* \"#utility.yul\":4818:4827   */\n  dup5\n    /* \"#utility.yul\":4813:4816   */\n  dup10\n    /* \"#utility.yul\":4809:4828   */\n  add\n    /* \"#utility.yul\":4803:4829   */\n  mload\n    /* \"#utility.yul\":4861:4909   */\n  tag_86\n    /* \"#utility.yul\":4903:4907   */\n  0x1f\n    /* \"#utility.yul\":4895:4901   */\n  dup10\n    /* \"#utility.yul\":4891:4908   */\n  and\n    /* \"#utility.yul\":4880:4889   */\n  dup3\n    /* \"#utility.yul\":4861:4909   */\n  tag_23\n  jump\t// in\ntag_86:\n    /* \"#utility.yul\":4853:4859   */\n  dup4\n    /* \"#utility.yul\":4846:4910   */\n  sstore\n    /* \"#utility.yul\":4768:4924   */\n  pop\n    /* \"#utility.yul\":4745:4924   */\ntag_85:\n    /* \"#utility.yul\":4970:4971   */\n  0x01\n    /* \"#utility.yul\":4966:4967   */\n  0x02\n    /* \"#utility.yul\":4958:4964   */\n  dup9\n    /* \"#utility.yul\":4954:4968   */\n  mul\n    /* \"#utility.yul\":4950:4972   */\n  add\n    /* \"#utility.yul\":4944:4948   */\n  dup9\n    /* \"#utility.yul\":4937:4973   */\n  sstore\n    /* \"#utility.yul\":4372:4983   */\n  pop\n  pop\n  pop\n    /* \"#utility.yul\":4335:5222   */\ntag_77:\n  pop\n    /* \"#utility.yul\":3925:5228   */\n  pop\n  pop\n  pop\n    /* \"#utility.yul\":3833:5228   */\n  pop\n  pop\n  jump\t// out\n    /* \"Users/carlos/dev/apps/solidity-apps/09-errors.sol\":475:818  contract Asset {... */\ntag_4:\n  dataSize(sub_0)\n  dup1\n  dataOffset(sub_0)\n  0x00\n  codecopy\n  0x00\n  return\nstop\n\nsub_0: assembly {\n        /* \"Users/carlos/dev/apps/solidity-apps/09-errors.sol\":475:818  contract Asset {... */\n      mstore(0x40, 0x80)\n      callvalue\n      dup1\n      iszero\n      tag_1\n      jumpi\n      0x00\n      dup1\n      revert\n    tag_1:\n      pop\n      jumpi(tag_2, lt(calldatasize, 0x04))\n      shr(0xe0, calldataload(0x00))\n      dup1\n      0xb00741cb\n      eq\n      tag_3\n      jumpi\n      dup1\n      0xc19d93fb\n      eq\n      tag_4\n      jumpi\n    tag_2:\n      0x00\n      dup1\n      revert\n        /* \"Users/carlos/dev/apps/solidity-apps/09-errors.sol\":574:816  function changeState(uint _state) public {... */\n    tag_3:\n      tag_5\n      0x04\n      dup1\n      calldatasize\n      sub\n      dup2\n      add\n      swap1\n      tag_6\n      swap2\n      swap1\n      tag_7\n      jump\t// in\n    tag_6:\n      tag_8\n      jump\t// in\n    tag_5:\n      stop\n        /* \"Users/carlos/dev/apps/solidity-apps/09-errors.sol\":496:526  string public state = 'onSale' */\n    tag_4:\n      tag_9\n      tag_10\n      jump\t// in\n    tag_9:\n      mload(0x40)\n      tag_11\n      swap2\n      swap1\n      tag_12\n      jump\t// in\n    tag_11:\n      mload(0x40)\n      dup1\n      swap2\n      sub\n      swap1\n      return\n        /* \"Users/carlos/dev/apps/solidity-apps/09-errors.sol\":574:816  function changeState(uint _state) public {... */\n    tag_8:\n        /* \"Users/carlos/dev/apps/solidity-apps/09-errors.sol\":638:639  0 */\n      0x00\n        /* \"Users/carlos/dev/apps/solidity-apps/09-errors.sol\":628:634  _state */\n      dup2\n        /* \"Users/carlos/dev/apps/solidity-apps/09-errors.sol\":628:639  _state == 0 */\n      sub\n        /* \"Users/carlos/dev/apps/solidity-apps/09-errors.sol\":625:810  if(_state == 0) {... */\n      tag_14\n      jumpi\n        /* \"Users/carlos/dev/apps/solidity-apps/09-errors.sol\":655:671  state = 'onSale' */\n      mload(0x40)\n      dup1\n      0x40\n      add\n      0x40\n      mstore\n      dup1\n      0x06\n      dup2\n      mstore\n      0x20\n      add\n      0x6f6e53616c650000000000000000000000000000000000000000000000000000\n      dup2\n      mstore\n      pop\n        /* \"Users/carlos/dev/apps/solidity-apps/09-errors.sol\":655:660  state */\n      0x00\n        /* \"Users/carlos/dev/apps/solidity-apps/09-errors.sol\":655:671  state = 'onSale' */\n      swap1\n      dup2\n      tag_15\n      swap2\n      swap1\n      tag_16\n      jump\t// in\n    tag_15:\n      pop\n        /* \"Users/carlos/dev/apps/solidity-apps/09-errors.sol\":625:810  if(_state == 0) {... */\n      jump(tag_17)\n    tag_14:\n        /* \"Users/carlos/dev/apps/solidity-apps/09-errors.sol\":701:702  1 */\n      0x01\n        /* \"Users/carlos/dev/apps/solidity-apps/09-errors.sol\":691:697  _state */\n      dup2\n        /* \"Users/carlos/dev/apps/solidity-apps/09-errors.sol\":691:702  _state == 1 */\n      sub\n        /* \"Users/carlos/dev/apps/solidity-apps/09-errors.sol\":688:810  if(_state == 1) {... */\n      tag_18\n      jumpi\n        /* \"Users/carlos/dev/apps/solidity-apps/09-errors.sol\":718:738  state = 'notForSale' */\n      mload(0x40)\n      dup1\n      0x40\n      add\n      0x40\n      mstore\n      dup1\n      0x0a\n      dup2\n      mstore\n      0x20\n      add\n      0x6e6f74466f7253616c6500000000000000000000000000000000000000000000\n      dup2\n      mstore\n      pop\n        /* \"Users/carlos/dev/apps/solidity-apps/09-errors.sol\":718:723  state */\n      0x00\n        /* \"Users/carlos/dev/apps/solidity-apps/09-errors.sol\":718:738  state = 'notForSale' */\n      swap1\n      dup2\n      tag_19\n      swap2\n      swap1\n      tag_16\n      jump\t// in\n    tag_19:\n      pop\n        /* \"Users/carlos/dev/apps/solidity-apps/09-errors.sol\":688:810  if(_state == 1) {... */\n      jump(tag_20)\n    tag_18:\n        /* \"Users/carlos/dev/apps/solidity-apps/09-errors.sol\":792:798  _state */\n      dup1\n        /* \"Users/carlos/dev/apps/solidity-apps/09-errors.sol\":776:799  StateNotDefined(_state) */\n      mload(0x40)\n      0xdf82c5f400000000000000000000000000000000000000000000000000000000\n      dup2\n      mstore\n      0x04\n      add\n      tag_21\n      swap2\n      swap1\n      tag_22\n      jump\t// in\n    tag_21:\n      mload(0x40)\n      dup1\n      swap2\n      sub\n      swap1\n      revert\n        /* \"Users/carlos/dev/apps/solidity-apps/09-errors.sol\":688:810  if(_state == 1) {... */\n    tag_20:\n        /* \"Users/carlos/dev/apps/solidity-apps/09-errors.sol\":625:810  if(_state == 0) {... */\n    tag_17:\n        /* \"Users/carlos/dev/apps/solidity-apps/09-errors.sol\":574:816  function changeState(uint _state) public {... */\n      pop\n      jump\t// out\n        /* \"Users/carlos/dev/apps/solidity-apps/09-errors.sol\":496:526  string public state = 'onSale' */\n    tag_10:\n      0x00\n      dup1\n      sload\n      tag_23\n      swap1\n      tag_24\n      jump\t// in\n    tag_23:\n      dup1\n      0x1f\n      add\n      0x20\n      dup1\n      swap2\n      div\n      mul\n      0x20\n      add\n      mload(0x40)\n      swap1\n      dup2\n      add\n      0x40\n      mstore\n      dup1\n      swap3\n      swap2\n      swap1\n      dup2\n      dup2\n      mstore\n      0x20\n      add\n      dup3\n      dup1\n      sload\n      tag_25\n      swap1\n      tag_24\n      jump\t// in\n    tag_25:\n      dup1\n      iszero\n      tag_26\n      jumpi\n      dup1\n      0x1f\n      lt\n      tag_27\n      jumpi\n      0x0100\n      dup1\n      dup4\n      sload\n      div\n      mul\n      dup4\n      mstore\n      swap2\n      0x20\n      add\n      swap2\n      jump(tag_26)\n    tag_27:\n      dup3\n      add\n      swap2\n      swap1\n      0x00\n      mstore\n      keccak256(0x00, 0x20)\n      swap1\n    tag_28:\n      dup2\n      sload\n      dup2\n      mstore\n      swap1\n      0x01\n      add\n      swap1\n      0x20\n      add\n      dup1\n      dup4\n      gt\n      tag_28\n      jumpi\n      dup3\n      swap1\n      sub\n      0x1f\n      and\n      dup3\n      add\n      swap2\n    tag_26:\n      pop\n      pop\n      pop\n      pop\n      pop\n      dup2\n      jump\t// out\n        /* \"#utility.yul\":88:205   */\n    tag_30:\n        /* \"#utility.yul\":197:198   */\n      0x00\n        /* \"#utility.yul\":194:195   */\n      dup1\n        /* \"#utility.yul\":187:199   */\n      revert\n        /* \"#utility.yul\":334:411   */\n    tag_32:\n        /* \"#utility.yul\":371:378   */\n      0x00\n        /* \"#utility.yul\":400:405   */\n      dup2\n        /* \"#utility.yul\":389:405   */\n      swap1\n      pop\n        /* \"#utility.yul\":334:411   */\n      swap2\n      swap1\n      pop\n      jump\t// out\n        /* \"#utility.yul\":417:539   */\n    tag_33:\n        /* \"#utility.yul\":490:514   */\n      tag_64\n        /* \"#utility.yul\":508:513   */\n      dup2\n        /* \"#utility.yul\":490:514   */\n      tag_32\n      jump\t// in\n    tag_64:\n        /* \"#utility.yul\":483:488   */\n      dup2\n        /* \"#utility.yul\":480:515   */\n      eq\n        /* \"#utility.yul\":470:533   */\n      tag_65\n      jumpi\n        /* \"#utility.yul\":529:530   */\n      0x00\n        /* \"#utility.yul\":526:527   */\n      dup1\n        /* \"#utility.yul\":519:531   */\n      revert\n        /* \"#utility.yul\":470:533   */\n    tag_65:\n        /* \"#utility.yul\":417:539   */\n      pop\n      jump\t// out\n        /* \"#utility.yul\":545:684   */\n    tag_34:\n        /* \"#utility.yul\":591:596   */\n      0x00\n        /* \"#utility.yul\":629:635   */\n      dup2\n        /* \"#utility.yul\":616:636   */\n      calldataload\n        /* \"#utility.yul\":607:636   */\n      swap1\n      pop\n        /* \"#utility.yul\":645:678   */\n      tag_67\n        /* \"#utility.yul\":672:677   */\n      dup2\n        /* \"#utility.yul\":645:678   */\n      tag_33\n      jump\t// in\n    tag_67:\n        /* \"#utility.yul\":545:684   */\n      swap3\n      swap2\n      pop\n      pop\n      jump\t// out\n        /* \"#utility.yul\":690:1019   */\n    tag_7:\n        /* \"#utility.yul\":749:755   */\n      0x00\n        /* \"#utility.yul\":798:800   */\n      0x20\n        /* \"#utility.yul\":786:795   */\n      dup3\n        /* \"#utility.yul\":777:784   */\n      dup5\n        /* \"#utility.yul\":773:796   */\n      sub\n        /* \"#utility.yul\":769:801   */\n      slt\n        /* \"#utility.yul\":766:885   */\n      iszero\n      tag_69\n      jumpi\n        /* \"#utility.yul\":804:883   */\n      tag_70\n      tag_30\n      jump\t// in\n    tag_70:\n        /* \"#utility.yul\":766:885   */\n    tag_69:\n        /* \"#utility.yul\":924:925   */\n      0x00\n        /* \"#utility.yul\":949:1002   */\n      tag_71\n        /* \"#utility.yul\":994:1001   */\n      dup5\n        /* \"#utility.yul\":985:991   */\n      dup3\n        /* \"#utility.yul\":974:983   */\n      dup6\n        /* \"#utility.yul\":970:992   */\n      add\n        /* \"#utility.yul\":949:1002   */\n      tag_34\n      jump\t// in\n    tag_71:\n        /* \"#utility.yul\":939:1002   */\n      swap2\n      pop\n        /* \"#utility.yul\":895:1012   */\n      pop\n        /* \"#utility.yul\":690:1019   */\n      swap3\n      swap2\n      pop\n      pop\n      jump\t// out\n        /* \"#utility.yul\":1025:1124   */\n    tag_35:\n        /* \"#utility.yul\":1077:1083   */\n      0x00\n        /* \"#utility.yul\":1111:1116   */\n      dup2\n        /* \"#utility.yul\":1105:1117   */\n      mload\n        /* \"#utility.yul\":1095:1117   */\n      swap1\n      pop\n        /* \"#utility.yul\":1025:1124   */\n      swap2\n      swap1\n      pop\n      jump\t// out\n        /* \"#utility.yul\":1130:1299   */\n    tag_36:\n        /* \"#utility.yul\":1214:1225   */\n      0x00\n        /* \"#utility.yul\":1248:1254   */\n      dup3\n        /* \"#utility.yul\":1243:1246   */\n      dup3\n        /* \"#utility.yul\":1236:1255   */\n      mstore\n        /* \"#utility.yul\":1288:1292   */\n      0x20\n        /* \"#utility.yul\":1283:1286   */\n      dup3\n        /* \"#utility.yul\":1279:1293   */\n      add\n        /* \"#utility.yul\":1264:1293   */\n      swap1\n      pop\n        /* \"#utility.yul\":1130:1299   */\n      swap3\n      swap2\n      pop\n      pop\n      jump\t// out\n        /* \"#utility.yul\":1305:1551   */\n    tag_37:\n        /* \"#utility.yul\":1386:1387   */\n      0x00\n        /* \"#utility.yul\":1396:1509   */\n    tag_75:\n        /* \"#utility.yul\":1410:1416   */\n      dup4\n        /* \"#utility.yul\":1407:1408   */\n      dup2\n        /* \"#utility.yul\":1404:1417   */\n      lt\n        /* \"#utility.yul\":1396:1509   */\n      iszero\n      tag_77\n      jumpi\n        /* \"#utility.yul\":1495:1496   */\n      dup1\n        /* \"#utility.yul\":1490:1493   */\n      dup3\n        /* \"#utility.yul\":1486:1497   */\n      add\n        /* \"#utility.yul\":1480:1498   */\n      mload\n        /* \"#utility.yul\":1476:1477   */\n      dup2\n        /* \"#utility.yul\":1471:1474   */\n      dup5\n        /* \"#utility.yul\":1467:1478   */\n      add\n        /* \"#utility.yul\":1460:1499   */\n      mstore\n        /* \"#utility.yul\":1432:1434   */\n      0x20\n        /* \"#utility.yul\":1429:1430   */\n      dup2\n        /* \"#utility.yul\":1425:1435   */\n      add\n        /* \"#utility.yul\":1420:1435   */\n      swap1\n      pop\n        /* \"#utility.yul\":1396:1509   */\n      jump(tag_75)\n    tag_77:\n        /* \"#utility.yul\":1543:1544   */\n      0x00\n        /* \"#utility.yul\":1534:1540   */\n      dup5\n        /* \"#utility.yul\":1529:1532   */\n      dup5\n        /* \"#utility.yul\":1525:1541   */\n      add\n        /* \"#utility.yul\":1518:1545   */\n      mstore\n        /* \"#utility.yul\":1367:1551   */\n      pop\n        /* \"#utility.yul\":1305:1551   */\n      pop\n      pop\n      pop\n      jump\t// out\n        /* \"#utility.yul\":1557:1659   */\n    tag_38:\n        /* \"#utility.yul\":1598:1604   */\n      0x00\n        /* \"#utility.yul\":1649:1651   */\n      0x1f\n        /* \"#utility.yul\":1645:1652   */\n      not\n        /* \"#utility.yul\":1640:1642   */\n      0x1f\n        /* \"#utility.yul\":1633:1638   */\n      dup4\n        /* \"#utility.yul\":1629:1643   */\n      add\n        /* \"#utility.yul\":1625:1653   */\n      and\n        /* \"#utility.yul\":1615:1653   */\n      swap1\n      pop\n        /* \"#utility.yul\":1557:1659   */\n      swap2\n      swap1\n      pop\n      jump\t// out\n        /* \"#utility.yul\":1665:2042   */\n    tag_39:\n        /* \"#utility.yul\":1753:1756   */\n      0x00\n        /* \"#utility.yul\":1781:1820   */\n      tag_80\n        /* \"#utility.yul\":1814:1819   */\n      dup3\n        /* \"#utility.yul\":1781:1820   */\n      tag_35\n      jump\t// in\n    tag_80:\n        /* \"#utility.yul\":1836:1907   */\n      tag_81\n        /* \"#utility.yul\":1900:1906   */\n      dup2\n        /* \"#utility.yul\":1895:1898   */\n      dup6\n        /* \"#utility.yul\":1836:1907   */\n      tag_36\n      jump\t// in\n    tag_81:\n        /* \"#utility.yul\":1829:1907   */\n      swap4\n      pop\n        /* \"#utility.yul\":1916:1981   */\n      tag_82\n        /* \"#utility.yul\":1974:1980   */\n      dup2\n        /* \"#utility.yul\":1969:1972   */\n      dup6\n        /* \"#utility.yul\":1962:1966   */\n      0x20\n        /* \"#utility.yul\":1955:1960   */\n      dup7\n        /* \"#utility.yul\":1951:1967   */\n      add\n        /* \"#utility.yul\":1916:1981   */\n      tag_37\n      jump\t// in\n    tag_82:\n        /* \"#utility.yul\":2006:2035   */\n      tag_83\n        /* \"#utility.yul\":2028:2034   */\n      dup2\n        /* \"#utility.yul\":2006:2035   */\n      tag_38\n      jump\t// in\n    tag_83:\n        /* \"#utility.yul\":2001:2004   */\n      dup5\n        /* \"#utility.yul\":1997:2036   */\n      add\n        /* \"#utility.yul\":1990:2036   */\n      swap2\n      pop\n        /* \"#utility.yul\":1757:2042   */\n      pop\n        /* \"#utility.yul\":1665:2042   */\n      swap3\n      swap2\n      pop\n      pop\n      jump\t// out\n        /* \"#utility.yul\":2048:2361   */\n    tag_12:\n        /* \"#utility.yul\":2161:2165   */\n      0x00\n        /* \"#utility.yul\":2199:2201   */\n      0x20\n        /* \"#utility.yul\":2188:2197   */\n      dup3\n        /* \"#utility.yul\":2184:2202   */\n      add\n        /* \"#utility.yul\":2176:2202   */\n      swap1\n      pop\n        /* \"#utility.yul\":2248:2257   */\n      dup2\n        /* \"#utility.yul\":2242:2246   */\n      dup2\n        /* \"#utility.yul\":2238:2258   */\n      sub\n        /* \"#utility.yul\":2234:2235   */\n      0x00\n        /* \"#utility.yul\":2223:2232   */\n      dup4\n        /* \"#utility.yul\":2219:2236   */\n      add\n        /* \"#utility.yul\":2212:2259   */\n      mstore\n        /* \"#utility.yul\":2276:2354   */\n      tag_85\n        /* \"#utility.yul\":2349:2353   */\n      dup2\n        /* \"#utility.yul\":2340:2346   */\n      dup5\n        /* \"#utility.yul\":2276:2354   */\n      tag_39\n      jump\t// in\n    tag_85:\n        /* \"#utility.yul\":2268:2354   */\n      swap1\n      pop\n        /* \"#utility.yul\":2048:2361   */\n      swap3\n      swap2\n      pop\n      pop\n      jump\t// out\n        /* \"#utility.yul\":2367:2547   */\n    tag_40:\n        /* \"#utility.yul\":2415:2492   */\n      0x4e487b7100000000000000000000000000000000000000000000000000000000\n        /* \"#utility.yul\":2412:2413   */\n      0x00\n        /* \"#utility.yul\":2405:2493   */\n      mstore\n        /* \"#utility.yul\":2512:2516   */\n      0x41\n        /* \"#utility.yul\":2509:2510   */\n      0x04\n        /* \"#utility.yul\":2502:2517   */\n      mstore\n        /* \"#utility.yul\":2536:2540   */\n      0x24\n        /* \"#utility.yul\":2533:2534   */\n      0x00\n        /* \"#utility.yul\":2526:2541   */\n      revert\n        /* \"#utility.yul\":2553:2733   */\n    tag_41:\n        /* \"#utility.yul\":2601:2678   */\n      0x4e487b7100000000000000000000000000000000000000000000000000000000\n        /* \"#utility.yul\":2598:2599   */\n      0x00\n        /* \"#utility.yul\":2591:2679   */\n      mstore\n        /* \"#utility.yul\":2698:2702   */\n      0x22\n        /* \"#utility.yul\":2695:2696   */\n      0x04\n        /* \"#utility.yul\":2688:2703   */\n      mstore\n        /* \"#utility.yul\":2722:2726   */\n      0x24\n        /* \"#utility.yul\":2719:2720   */\n      0x00\n        /* \"#utility.yul\":2712:2727   */\n      revert\n        /* \"#utility.yul\":2739:3059   */\n    tag_24:\n        /* \"#utility.yul\":2783:2789   */\n      0x00\n        /* \"#utility.yul\":2820:2821   */\n      0x02\n        /* \"#utility.yul\":2814:2818   */\n      dup3\n        /* \"#utility.yul\":2810:2822   */\n      div\n        /* \"#utility.yul\":2800:2822   */\n      swap1\n      pop\n        /* \"#utility.yul\":2867:2868   */\n      0x01\n        /* \"#utility.yul\":2861:2865   */\n      dup3\n        /* \"#utility.yul\":2857:2869   */\n      and\n        /* \"#utility.yul\":2888:2906   */\n      dup1\n        /* \"#utility.yul\":2878:2959   */\n      tag_89\n      jumpi\n        /* \"#utility.yul\":2944:2948   */\n      0x7f\n        /* \"#utility.yul\":2936:2942   */\n      dup3\n        /* \"#utility.yul\":2932:2949   */\n      and\n        /* \"#utility.yul\":2922:2949   */\n      swap2\n      pop\n        /* \"#utility.yul\":2878:2959   */\n    tag_89:\n        /* \"#utility.yul\":3006:3008   */\n      0x20\n        /* \"#utility.yul\":2998:3004   */\n      dup3\n        /* \"#utility.yul\":2995:3009   */\n      lt\n        /* \"#utility.yul\":2975:2993   */\n      dup2\n        /* \"#utility.yul\":2972:3010   */\n      sub\n        /* \"#utility.yul\":2969:3053   */\n      tag_90\n      jumpi\n        /* \"#utility.yul\":3025:3043   */\n      tag_91\n      tag_41\n      jump\t// in\n    tag_91:\n        /* \"#utility.yul\":2969:3053   */\n    tag_90:\n        /* \"#utility.yul\":2790:3059   */\n      pop\n        /* \"#utility.yul\":2739:3059   */\n      swap2\n      swap1\n      pop\n      jump\t// out\n        /* \"#utility.yul\":3065:3206   */\n    tag_42:\n        /* \"#utility.yul\":3114:3118   */\n      0x00\n        /* \"#utility.yul\":3137:3140   */\n      dup2\n        /* \"#utility.yul\":3129:3140   */\n      swap1\n      pop\n        /* \"#utility.yul\":3160:3163   */\n      dup2\n        /* \"#utility.yul\":3157:3158   */\n      0x00\n        /* \"#utility.yul\":3150:3164   */\n      mstore\n        /* \"#utility.yul\":3194:3198   */\n      0x20\n        /* \"#utility.yul\":3191:3192   */\n      0x00\n        /* \"#utility.yul\":3181:3199   */\n      keccak256\n        /* \"#utility.yul\":3173:3199   */\n      swap1\n      pop\n        /* \"#utility.yul\":3065:3206   */\n      swap2\n      swap1\n      pop\n      jump\t// out\n        /* \"#utility.yul\":3212:3305   */\n    tag_43:\n        /* \"#utility.yul\":3249:3255   */\n      0x00\n        /* \"#utility.yul\":3296:3298   */\n      0x20\n        /* \"#utility.yul\":3291:3293   */\n      0x1f\n        /* \"#utility.yul\":3284:3289   */\n      dup4\n        /* \"#utility.yul\":3280:3294   */\n      add\n        /* \"#utility.yul\":3276:3299   */\n      div\n        /* \"#utility.yul\":3266:3299   */\n      swap1\n      pop\n        /* \"#utility.yul\":3212:3305   */\n      swap2\n      swap1\n      pop\n      jump\t// out\n        /* \"#utility.yul\":3311:3418   */\n    tag_44:\n        /* \"#utility.yul\":3355:3363   */\n      0x00\n        /* \"#utility.yul\":3405:3410   */\n      dup3\n        /* \"#utility.yul\":3399:3403   */\n      dup3\n        /* \"#utility.yul\":3395:3411   */\n      shl\n        /* \"#utility.yul\":3374:3411   */\n      swap1\n      pop\n        /* \"#utility.yul\":3311:3418   */\n      swap3\n      swap2\n      pop\n      pop\n      jump\t// out\n        /* \"#utility.yul\":3424:3817   */\n    tag_45:\n        /* \"#utility.yul\":3493:3499   */\n      0x00\n        /* \"#utility.yul\":3543:3544   */\n      0x08\n        /* \"#utility.yul\":3531:3541   */\n      dup4\n        /* \"#utility.yul\":3527:3545   */\n      mul\n        /* \"#utility.yul\":3566:3663   */\n      tag_96\n        /* \"#utility.yul\":3596:3662   */\n      0xffffffffffffffffffffffffffffffffffffffffffffffffffffffffffffffff\n        /* \"#utility.yul\":3585:3594   */\n      dup3\n        /* \"#utility.yul\":3566:3663   */\n      tag_44\n      jump\t// in\n    tag_96:\n        /* \"#utility.yul\":3684:3723   */\n      tag_97\n        /* \"#utility.yul\":3714:3722   */\n      dup7\n        /* \"#utility.yul\":3703:3712   */\n      dup4\n        /* \"#utility.yul\":3684:3723   */\n      tag_44\n      jump\t// in\n    tag_97:\n        /* \"#utility.yul\":3672:3723   */\n      swap6\n      pop\n        /* \"#utility.yul\":3756:3760   */\n      dup1\n        /* \"#utility.yul\":3752:3761   */\n      not\n        /* \"#utility.yul\":3745:3750   */\n      dup5\n        /* \"#utility.yul\":3741:3762   */\n      and\n        /* \"#utility.yul\":3732:3762   */\n      swap4\n      pop\n        /* \"#utility.yul\":3805:3809   */\n      dup1\n        /* \"#utility.yul\":3795:3803   */\n      dup7\n        /* \"#utility.yul\":3791:3810   */\n      and\n        /* \"#utility.yul\":3784:3789   */\n      dup5\n        /* \"#utility.yul\":3781:3811   */\n      or\n        /* \"#utility.yul\":3771:3811   */\n      swap3\n      pop\n        /* \"#utility.yul\":3500:3817   */\n      pop\n      pop\n        /* \"#utility.yul\":3424:3817   */\n      swap4\n      swap3\n      pop\n      pop\n      pop\n      jump\t// out\n        /* \"#utility.yul\":3823:3883   */\n    tag_46:\n        /* \"#utility.yul\":3851:3854   */\n      0x00\n        /* \"#utility.yul\":3872:3877   */\n      dup2\n        /* \"#utility.yul\":3865:3877   */\n      swap1\n      pop\n        /* \"#utility.yul\":3823:3883   */\n      swap2\n      swap1\n      pop\n      jump\t// out\n        /* \"#utility.yul\":3889:4031   */\n    tag_47:\n        /* \"#utility.yul\":3939:3948   */\n      0x00\n        /* \"#utility.yul\":3972:4025   */\n      tag_100\n        /* \"#utility.yul\":3990:4024   */\n      tag_101\n        /* \"#utility.yul\":3999:4023   */\n      tag_102\n        /* \"#utility.yul\":4017:4022   */\n      dup5\n        /* \"#utility.yul\":3999:4023   */\n      tag_32\n      jump\t// in\n    tag_102:\n        /* \"#utility.yul\":3990:4024   */\n      tag_46\n      jump\t// in\n    tag_101:\n        /* \"#utility.yul\":3972:4025   */\n      tag_32\n      jump\t// in\n    tag_100:\n        /* \"#utility.yul\":3959:4025   */\n      swap1\n      pop\n        /* \"#utility.yul\":3889:4031   */\n      swap2\n      swap1\n      pop\n      jump\t// out\n        /* \"#utility.yul\":4037:4112   */\n    tag_48:\n        /* \"#utility.yul\":4080:4083   */\n      0x00\n        /* \"#utility.yul\":4101:4106   */\n      dup2\n        /* \"#utility.yul\":4094:4106   */\n      swap1\n      pop\n        /* \"#utility.yul\":4037:4112   */\n      swap2\n      swap1\n      pop\n      jump\t// out\n        /* \"#utility.yul\":4118:4387   */\n    tag_49:\n        /* \"#utility.yul\":4228:4267   */\n      tag_105\n        /* \"#utility.yul\":4259:4266   */\n      dup4\n        /* \"#utility.yul\":4228:4267   */\n      tag_47\n      jump\t// in\n    tag_105:\n        /* \"#utility.yul\":4289:4380   */\n      tag_106\n        /* \"#utility.yul\":4338:4379   */\n      tag_107\n        /* \"#utility.yul\":4362:4378   */\n      dup3\n        /* \"#utility.yul\":4338:4379   */\n      tag_48\n      jump\t// in\n    tag_107:\n        /* \"#utility.yul\":4330:4336   */\n      dup5\n        /* \"#utility.yul\":4323:4327   */\n      dup5\n        /* \"#utility.yul\":4317:4328   */\n      sload\n        /* \"#utility.yul\":4289:4380   */\n      tag_45\n      jump\t// in\n    tag_106:\n        /* \"#utility.yul\":4283:4287   */\n      dup3\n        /* \"#utility.yul\":4276:4381   */\n      sstore\n        /* \"#utility.yul\":4194:4387   */\n      pop\n        /* \"#utility.yul\":4118:4387   */\n      pop\n      pop\n      pop\n      jump\t// out\n        /* \"#utility.yul\":4393:4466   */\n    tag_50:\n        /* \"#utility.yul\":4438:4441   */\n      0x00\n        /* \"#utility.yul\":4393:4466   */\n      swap1\n      jump\t// out\n        /* \"#utility.yul\":4472:4661   */\n    tag_51:\n        /* \"#utility.yul\":4549:4581   */\n      tag_110\n      tag_50\n      jump\t// in\n    tag_110:\n        /* \"#utility.yul\":4590:4655   */\n      tag_111\n        /* \"#utility.yul\":4648:4654   */\n      dup2\n        /* \"#utility.yul\":4640:4646   */\n      dup5\n        /* \"#utility.yul\":4634:4638   */\n      dup5\n        /* \"#utility.yul\":4590:4655   */\n      tag_49\n      jump\t// in\n    tag_111:\n        /* \"#utility.yul\":4525:4661   */\n      pop\n        /* \"#utility.yul\":4472:4661   */\n      pop\n      pop\n      jump\t// out\n        /* \"#utility.yul\":4667:4853   */\n    tag_52:\n        /* \"#utility.yul\":4727:4847   */\n    tag_113:\n        /* \"#utility.yul\":4744:4747   */\n      dup2\n        /* \"#utility.yul\":4737:4742   */\n      dup2\n        /* \"#utility.yul\":4734:4748   */\n      lt\n        /* \"#utility.yul\":4727:4847   */\n      iszero\n      tag_115\n      jumpi\n        /* \"#utility.yul\":4798:4837   */\n      tag_116\n        /* \"#utility.yul\":4835:4836   */\n      0x00\n        /* \"#utility.yul\":4828:4833   */\n      dup3\n        /* \"#utility.yul\":4798:4837   */\n      tag_51\n      jump\t// in\n    tag_116:\n        /* \"#utility.yul\":4771:4772   */\n      0x01\n        /* \"#utility.yul\":4764:4769   */\n      dup2\n        /* \"#utility.yul\":4760:4773   */\n      add\n        /* \"#utility.yul\":4751:4773   */\n      swap1\n      pop\n        /* \"#utility.yul\":4727:4847   */\n      jump(tag_113)\n    tag_115:\n        /* \"#utility.yul\":4667:4853   */\n      pop\n      pop\n      jump\t// out\n        /* \"#utility.yul\":4859:5402   */\n    tag_53:\n        /* \"#utility.yul\":4960:4962   */\n      0x1f\n        /* \"#utility.yul\":4955:4958   */\n      dup3\n        /* \"#utility.yul\":4952:4963   */\n      gt\n        /* \"#utility.yul\":4949:5395   */\n      iszero\n      tag_118\n      jumpi\n        /* \"#utility.yul\":4994:5032   */\n      tag_119\n        /* \"#utility.yul\":5026:5031   */\n      dup2\n        /* \"#utility.yul\":4994:5032   */\n      tag_42\n      jump\t// in\n    tag_119:\n        /* \"#utility.yul\":5078:5107   */\n      tag_120\n        /* \"#utility.yul\":5096:5106   */\n      dup5\n        /* \"#utility.yul\":5078:5107   */\n      tag_43\n      jump\t// in\n    tag_120:\n        /* \"#utility.yul\":5068:5076   */\n      dup2\n        /* \"#utility.yul\":5064:5108   */\n      add\n        /* \"#utility.yul\":5261:5263   */\n      0x20\n        /* \"#utility.yul\":5249:5259   */\n      dup6\n        /* \"#utility.yul\":5246:5264   */\n      lt\n        /* \"#utility.yul\":5243:5292   */\n      iszero\n      tag_121\n      jumpi\n        /* \"#utility.yul\":5282:5290   */\n      dup2\n        /* \"#utility.yul\":5267:5290   */\n      swap1\n      pop\n        /* \"#utility.yul\":5243:5292   */\n    tag_121:\n        /* \"#utility.yul\":5305:5385   */\n      tag_122\n        /* \"#utility.yul\":5361:5383   */\n      tag_123\n        /* \"#utility.yul\":5379:5382   */\n      dup6\n        /* \"#utility.yul\":5361:5383   */\n      tag_43\n      jump\t// in\n    tag_123:\n        /* \"#utility.yul\":5351:5359   */\n      dup4\n        /* \"#utility.yul\":5347:5384   */\n      add\n        /* \"#utility.yul\":5334:5345   */\n      dup3\n        /* \"#utility.yul\":5305:5385   */\n      tag_52\n      jump\t// in\n    tag_122:\n        /* \"#utility.yul\":4964:5395   */\n      pop\n      pop\n        /* \"#utility.yul\":4949:5395   */\n    tag_118:\n        /* \"#utility.yul\":4859:5402   */\n      pop\n      pop\n      pop\n      jump\t// out\n        /* \"#utility.yul\":5408:5525   */\n    tag_54:\n        /* \"#utility.yul\":5462:5470   */\n      0x00\n        /* \"#utility.yul\":5512:5517   */\n      dup3\n        /* \"#utility.yul\":5506:5510   */\n      dup3\n        /* \"#utility.yul\":5502:5518   */\n      shr\n        /* \"#utility.yul\":5481:5518   */\n      swap1\n      pop\n        /* \"#utility.yul\":5408:5525   */\n      swap3\n      swap2\n      pop\n      pop\n      jump\t// out\n        /* \"#utility.yul\":5531:5700   */\n    tag_55:\n        /* \"#utility.yul\":5575:5581   */\n      0x00\n        /* \"#utility.yul\":5608:5659   */\n      tag_126\n        /* \"#utility.yul\":5656:5657   */\n      0x00\n        /* \"#utility.yul\":5652:5658   */\n      not\n        /* \"#utility.yul\":5644:5649   */\n      dup5\n        /* \"#utility.yul\":5641:5642   */\n      0x08\n        /* \"#utility.yul\":5637:5650   */\n      mul\n        /* \"#utility.yul\":5608:5659   */\n      tag_54\n      jump\t// in\n    tag_126:\n        /* \"#utility.yul\":5604:5660   */\n      not\n        /* \"#utility.yul\":5689:5693   */\n      dup1\n        /* \"#utility.yul\":5683:5687   */\n      dup4\n        /* \"#utility.yul\":5679:5694   */\n      and\n        /* \"#utility.yul\":5669:5694   */\n      swap2\n      pop\n        /* \"#utility.yul\":5582:5700   */\n      pop\n        /* \"#utility.yul\":5531:5700   */\n      swap3\n      swap2\n      pop\n      pop\n      jump\t// out\n        /* \"#utility.yul\":5705:6000   */\n    tag_56:\n        /* \"#utility.yul\":5781:5785   */\n      0x00\n        /* \"#utility.yul\":5927:5956   */\n      tag_128\n        /* \"#utility.yul\":5952:5955   */\n      dup4\n        /* \"#utility.yul\":5946:5950   */\n      dup4\n        /* \"#utility.yul\":5927:5956   */\n      tag_55\n      jump\t// in\n    tag_128:\n        /* \"#utility.yul\":5919:5956   */\n      swap2\n      pop\n        /* \"#utility.yul\":5989:5992   */\n      dup3\n        /* \"#utility.yul\":5986:5987   */\n      0x02\n        /* \"#utility.yul\":5982:5993   */\n      mul\n        /* \"#utility.yul\":5976:5980   */\n      dup3\n        /* \"#utility.yul\":5973:5994   */\n      or\n        /* \"#utility.yul\":5965:5994   */\n      swap1\n      pop\n        /* \"#utility.yul\":5705:6000   */\n      swap3\n      swap2\n      pop\n      pop\n      jump\t// out\n        /* \"#utility.yul\":6005:7400   */\n    tag_16:\n        /* \"#utility.yul\":6122:6159   */\n      tag_130\n        /* \"#utility.yul\":6155:6158   */\n      dup3\n        /* \"#utility.yul\":6122:6159   */\n      tag_35\n      jump\t// in\n    tag_130:\n        /* \"#utility.yul\":6224:6242   */\n      0xffffffffffffffff\n        /* \"#utility.yul\":6216:6222   */\n      dup2\n        /* \"#utility.yul\":6213:6243   */\n      gt\n        /* \"#utility.yul\":6210:6266   */\n      iszero\n      tag_131\n      jumpi\n        /* \"#utility.yul\":6246:6264   */\n      tag_132\n      tag_40\n      jump\t// in\n    tag_132:\n        /* \"#utility.yul\":6210:6266   */\n    tag_131:\n        /* \"#utility.yul\":6290:6328   */\n      tag_133\n        /* \"#utility.yul\":6322:6326   */\n      dup3\n        /* \"#utility.yul\":6316:6327   */\n      sload\n        /* \"#utility.yul\":6290:6328   */\n      tag_24\n      jump\t// in\n    tag_133:\n        /* \"#utility.yul\":6375:6442   */\n      tag_134\n        /* \"#utility.yul\":6435:6441   */\n      dup3\n        /* \"#utility.yul\":6427:6433   */\n      dup3\n        /* \"#utility.yul\":6421:6425   */\n      dup6\n        /* \"#utility.yul\":6375:6442   */\n      tag_53\n      jump\t// in\n    tag_134:\n        /* \"#utility.yul\":6469:6470   */\n      0x00\n        /* \"#utility.yul\":6493:6497   */\n      0x20\n        /* \"#utility.yul\":6480:6497   */\n      swap1\n      pop\n        /* \"#utility.yul\":6525:6527   */\n      0x1f\n        /* \"#utility.yul\":6517:6523   */\n      dup4\n        /* \"#utility.yul\":6514:6528   */\n      gt\n        /* \"#utility.yul\":6542:6543   */\n      0x01\n        /* \"#utility.yul\":6537:7155   */\n      dup2\n      eq\n      tag_136\n      jumpi\n        /* \"#utility.yul\":7199:7200   */\n      0x00\n        /* \"#utility.yul\":7216:7222   */\n      dup5\n        /* \"#utility.yul\":7213:7290   */\n      iszero\n      tag_137\n      jumpi\n        /* \"#utility.yul\":7265:7274   */\n      dup3\n        /* \"#utility.yul\":7260:7263   */\n      dup8\n        /* \"#utility.yul\":7256:7275   */\n      add\n        /* \"#utility.yul\":7250:7276   */\n      mload\n        /* \"#utility.yul\":7241:7276   */\n      swap1\n      pop\n        /* \"#utility.yul\":7213:7290   */\n    tag_137:\n        /* \"#utility.yul\":7316:7383   */\n      tag_138\n        /* \"#utility.yul\":7376:7382   */\n      dup6\n        /* \"#utility.yul\":7369:7374   */\n      dup3\n        /* \"#utility.yul\":7316:7383   */\n      tag_56\n      jump\t// in\n    tag_138:\n        /* \"#utility.yul\":7310:7314   */\n      dup7\n        /* \"#utility.yul\":7303:7384   */\n      sstore\n        /* \"#utility.yul\":7172:7394   */\n      pop\n        /* \"#utility.yul\":6507:7394   */\n      jump(tag_135)\n        /* \"#utility.yul\":6537:7155   */\n    tag_136:\n        /* \"#utility.yul\":6589:6593   */\n      0x1f\n        /* \"#utility.yul\":6585:6594   */\n      not\n        /* \"#utility.yul\":6577:6583   */\n      dup5\n        /* \"#utility.yul\":6573:6595   */\n      and\n        /* \"#utility.yul\":6623:6660   */\n      tag_139\n        /* \"#utility.yul\":6655:6659   */\n      dup7\n        /* \"#utility.yul\":6623:6660   */\n      tag_42\n      jump\t// in\n    tag_139:\n        /* \"#utility.yul\":6682:6683   */\n      0x00\n        /* \"#utility.yul\":6696:6904   */\n    tag_140:\n        /* \"#utility.yul\":6710:6717   */\n      dup3\n        /* \"#utility.yul\":6707:6708   */\n      dup2\n        /* \"#utility.yul\":6704:6718   */\n      lt\n        /* \"#utility.yul\":6696:6904   */\n      iszero\n      tag_142\n      jumpi\n        /* \"#utility.yul\":6789:6798   */\n      dup5\n        /* \"#utility.yul\":6784:6787   */\n      dup10\n        /* \"#utility.yul\":6780:6799   */\n      add\n        /* \"#utility.yul\":6774:6800   */\n      mload\n        /* \"#utility.yul\":6766:6772   */\n      dup3\n        /* \"#utility.yul\":6759:6801   */\n      sstore\n        /* \"#utility.yul\":6840:6841   */\n      0x01\n        /* \"#utility.yul\":6832:6838   */\n      dup3\n        /* \"#utility.yul\":6828:6842   */\n      add\n        /* \"#utility.yul\":6818:6842   */\n      swap2\n      pop\n        /* \"#utility.yul\":6887:6889   */\n      0x20\n        /* \"#utility.yul\":6876:6885   */\n      dup6\n        /* \"#utility.yul\":6872:6890   */\n      add\n        /* \"#utility.yul\":6859:6890   */\n      swap5\n      pop\n        /* \"#utility.yul\":6733:6737   */\n      0x20\n        /* \"#utility.yul\":6730:6731   */\n      dup2\n        /* \"#utility.yul\":6726:6738   */\n      add\n        /* \"#utility.yul\":6721:6738   */\n      swap1\n      pop\n        /* \"#utility.yul\":6696:6904   */\n      jump(tag_140)\n    tag_142:\n        /* \"#utility.yul\":6932:6938   */\n      dup7\n        /* \"#utility.yul\":6923:6930   */\n      dup4\n        /* \"#utility.yul\":6920:6939   */\n      lt\n        /* \"#utility.yul\":6917:7096   */\n      iszero\n      tag_143\n      jumpi\n        /* \"#utility.yul\":6990:6999   */\n      dup5\n        /* \"#utility.yul\":6985:6988   */\n      dup10\n        /* \"#utility.yul\":6981:7000   */\n      add\n        /* \"#utility.yul\":6975:7001   */\n      mload\n        /* \"#utility.yul\":7033:7081   */\n      tag_144\n        /* \"#utility.yul\":7075:7079   */\n      0x1f\n        /* \"#utility.yul\":7067:7073   */\n      dup10\n        /* \"#utility.yul\":7063:7080   */\n      and\n        /* \"#utility.yul\":7052:7061   */\n      dup3\n        /* \"#utility.yul\":7033:7081   */\n      tag_55\n      jump\t// in\n    tag_144:\n        /* \"#utility.yul\":7025:7031   */\n      dup4\n        /* \"#utility.yul\":7018:7082   */\n      sstore\n        /* \"#utility.yul\":6940:7096   */\n      pop\n        /* \"#utility.yul\":6917:7096   */\n    tag_143:\n        /* \"#utility.yul\":7142:7143   */\n      0x01\n        /* \"#utility.yul\":7138:7139   */\n      0x02\n        /* \"#utility.yul\":7130:7136   */\n      dup9\n        /* \"#utility.yul\":7126:7140   */\n      mul\n        /* \"#utility.yul\":7122:7144   */\n      add\n        /* \"#utility.yul\":7116:7120   */\n      dup9\n        /* \"#utility.yul\":7109:7145   */\n      sstore\n        /* \"#utility.yul\":6544:7155   */\n      pop\n      pop\n      pop\n        /* \"#utility.yul\":6507:7394   */\n    tag_135:\n      pop\n        /* \"#utility.yul\":6097:7400   */\n      pop\n      pop\n      pop\n        /* \"#utility.yul\":6005:7400   */\n      pop\n      pop\n      jump\t// out\n        /* \"#utility.yul\":7406:7524   */\n    tag_57:\n        /* \"#utility.yul\":7493:7517   */\n      tag_146\n        /* \"#utility.yul\":7511:7516   */\n      dup2\n        /* \"#utility.yul\":7493:7517   */\n      tag_32\n      jump\t// in\n    tag_146:\n        /* \"#utility.yul\":7488:7491   */\n      dup3\n        /* \"#utility.yul\":7481:7518   */\n      mstore\n        /* \"#utility.yul\":7406:7524   */\n      pop\n      pop\n      jump\t// out\n        /* \"#utility.yul\":7530:7752   */\n    tag_22:\n        /* \"#utility.yul\":7623:7627   */\n      0x00\n        /* \"#utility.yul\":7661:7663   */\n      0x20\n        /* \"#utility.yul\":7650:7659   */\n      dup3\n        /* \"#utility.yul\":7646:7664   */\n      add\n        /* \"#utility.yul\":7638:7664   */\n      swap1\n      pop\n        /* \"#utility.yul\":7674:7745   */\n      tag_148\n        /* \"#utility.yul\":7742:7743   */\n      0x00\n        /* \"#utility.yul\":7731:7740   */\n      dup4\n        /* \"#utility.yul\":7727:7744   */\n      add\n        /* \"#utility.yul\":7718:7724   */\n      dup5\n        /* \"#utility.yul\":7674:7745   */\n      tag_57\n      jump\t// in\n    tag_148:\n        /* \"#utility.yul\":7530:7752   */\n      swap3\n      swap2\n      pop\n      pop\n      jump\t// out\n\n    auxdata: 0xa2646970667358221220062b783f423f64b4138005b95531808281de11cbc4935f84b5dd9b47063ed03264736f6c63430008110033\n}\n",
				"bytecode": {
					"linkReferences": {},
					"object": "60806040526040518060400160405280600681526020017f6f6e53616c650000000000000000000000000000000000000000000000000000815250600090816200004a9190620002d9565b503480156200005857600080fd5b50620003c0565b600081519050919050565b7f4e487b7100000000000000000000000000000000000000000000000000000000600052604160045260246000fd5b7f4e487b7100000000000000000000000000000000000000000000000000000000600052602260045260246000fd5b60006002820490506001821680620000e157607f821691505b602082108103620000f757620000f662000099565b5b50919050565b60008190508160005260206000209050919050565b60006020601f8301049050919050565b600082821b905092915050565b600060088302620001617fffffffffffffffffffffffffffffffffffffffffffffffffffffffffffffffff8262000122565b6200016d868362000122565b95508019841693508086168417925050509392505050565b6000819050919050565b6000819050919050565b6000620001ba620001b4620001ae8462000185565b6200018f565b62000185565b9050919050565b6000819050919050565b620001d68362000199565b620001ee620001e582620001c1565b8484546200012f565b825550505050565b600090565b62000205620001f6565b62000212818484620001cb565b505050565b5b818110156200023a576200022e600082620001fb565b60018101905062000218565b5050565b601f82111562000289576200025381620000fd565b6200025e8462000112565b810160208510156200026e578190505b620002866200027d8562000112565b83018262000217565b50505b505050565b600082821c905092915050565b6000620002ae600019846008026200028e565b1980831691505092915050565b6000620002c983836200029b565b9150826002028217905092915050565b620002e4826200005f565b67ffffffffffffffff8111156200030057620002ff6200006a565b5b6200030c8254620000c8565b620003198282856200023e565b600060209050601f8311600181146200035157600084156200033c578287015190505b620003488582620002bb565b865550620003b8565b601f1984166200036186620000fd565b60005b828110156200038b5784890151825560018201915060208501945060208101905062000364565b86831015620003ab5784890151620003a7601f8916826200029b565b8355505b6001600288020188555050505b505050505050565b61066f80620003d06000396000f3fe608060405234801561001057600080fd5b50600436106100365760003560e01c8063b00741cb1461003b578063c19d93fb14610057575b600080fd5b61005560048036038101906100509190610223565b610075565b005b61005f61015a565b60405161006c91906102e0565b60405180910390f35b600081036100c7576040518060400160405280600681526020017f6f6e53616c650000000000000000000000000000000000000000000000000000815250600090816100c1919061053d565b50610157565b60018103610119576040518060400160405280600a81526020017f6e6f74466f7253616c650000000000000000000000000000000000000000000081525060009081610113919061053d565b50610156565b806040517fdf82c5f400000000000000000000000000000000000000000000000000000000815260040161014d919061061e565b60405180910390fd5b5b50565b6000805461016790610360565b80601f016020809104026020016040519081016040528092919081815260200182805461019390610360565b80156101e05780601f106101b5576101008083540402835291602001916101e0565b820191906000526020600020905b8154815290600101906020018083116101c357829003601f168201915b505050505081565b600080fd5b6000819050919050565b610200816101ed565b811461020b57600080fd5b50565b60008135905061021d816101f7565b92915050565b600060208284031215610239576102386101e8565b5b60006102478482850161020e565b91505092915050565b600081519050919050565b600082825260208201905092915050565b60005b8381101561028a57808201518184015260208101905061026f565b60008484015250505050565b6000601f19601f8301169050919050565b60006102b282610250565b6102bc818561025b565b93506102cc81856020860161026c565b6102d581610296565b840191505092915050565b600060208201905081810360008301526102fa81846102a7565b905092915050565b7f4e487b7100000000000000000000000000000000000000000000000000000000600052604160045260246000fd5b7f4e487b7100000000000000000000000000000000000000000000000000000000600052602260045260246000fd5b6000600282049050600182168061037857607f821691505b60208210810361038b5761038a610331565b5b50919050565b60008190508160005260206000209050919050565b60006020601f8301049050919050565b600082821b905092915050565b6000600883026103f37fffffffffffffffffffffffffffffffffffffffffffffffffffffffffffffffff826103b6565b6103fd86836103b6565b95508019841693508086168417925050509392505050565b6000819050919050565b600061043a610435610430846101ed565b610415565b6101ed565b9050919050565b6000819050919050565b6104548361041f565b61046861046082610441565b8484546103c3565b825550505050565b600090565b61047d610470565b61048881848461044b565b505050565b5b818110156104ac576104a1600082610475565b60018101905061048e565b5050565b601f8211156104f1576104c281610391565b6104cb846103a6565b810160208510156104da578190505b6104ee6104e6856103a6565b83018261048d565b50505b505050565b600082821c905092915050565b6000610514600019846008026104f6565b1980831691505092915050565b600061052d8383610503565b9150826002028217905092915050565b61054682610250565b67ffffffffffffffff81111561055f5761055e610302565b5b6105698254610360565b6105748282856104b0565b600060209050601f8311600181146105a75760008415610595578287015190505b61059f8582610521565b865550610607565b601f1984166105b586610391565b60005b828110156105dd578489015182556001820191506020850194506020810190506105b8565b868310156105fa57848901516105f6601f891682610503565b8355505b6001600288020188555050505b505050505050565b610618816101ed565b82525050565b6000602082019050610633600083018461060f565b9291505056fea2646970667358221220062b783f423f64b4138005b95531808281de11cbc4935f84b5dd9b47063ed03264736f6c63430008110033",
					"opcodes": "PUSH1 0x80 PUSH1 0x40 MSTORE PUSH1 0x40 MLOAD DUP1 PUSH1 0x40 ADD PUSH1 0x40 MSTORE DUP1 PUSH1 0x6 DUP2 MSTORE PUSH1 0x20 ADD PUSH32 0x6F6E53616C650000000000000000000000000000000000000000000000000000 DUP2 MSTORE POP PUSH1 0x0 SWAP1 DUP2 PUSH3 0x4A SWAP2 SWAP1 PUSH3 0x2D9 JUMP JUMPDEST POP CALLVALUE DUP1 ISZERO PUSH3 0x58 JUMPI PUSH1 0x0 DUP1 REVERT JUMPDEST POP PUSH3 0x3C0 JUMP JUMPDEST PUSH1 0x0 DUP2 MLOAD SWAP1 POP SWAP2 SWAP1 POP JUMP JUMPDEST PUSH32 0x4E487B7100000000000000000000000000000000000000000000000000000000 PUSH1 0x0 MSTORE PUSH1 0x41 PUSH1 0x4 MSTORE PUSH1 0x24 PUSH1 0x0 REVERT JUMPDEST PUSH32 0x4E487B7100000000000000000000000000000000000000000000000000000000 PUSH1 0x0 MSTORE PUSH1 0x22 PUSH1 0x4 MSTORE PUSH1 0x24 PUSH1 0x0 REVERT JUMPDEST PUSH1 0x0 PUSH1 0x2 DUP3 DIV SWAP1 POP PUSH1 0x1 DUP3 AND DUP1 PUSH3 0xE1 JUMPI PUSH1 0x7F DUP3 AND SWAP2 POP JUMPDEST PUSH1 0x20 DUP3 LT DUP2 SUB PUSH3 0xF7 JUMPI PUSH3 0xF6 PUSH3 0x99 JUMP JUMPDEST JUMPDEST POP SWAP2 SWAP1 POP JUMP JUMPDEST PUSH1 0x0 DUP2 SWAP1 POP DUP2 PUSH1 0x0 MSTORE PUSH1 0x20 PUSH1 0x0 KECCAK256 SWAP1 POP SWAP2 SWAP1 POP JUMP JUMPDEST PUSH1 0x0 PUSH1 0x20 PUSH1 0x1F DUP4 ADD DIV SWAP1 POP SWAP2 SWAP1 POP JUMP JUMPDEST PUSH1 0x0 DUP3 DUP3 SHL SWAP1 POP SWAP3 SWAP2 POP POP JUMP JUMPDEST PUSH1 0x0 PUSH1 0x8 DUP4 MUL PUSH3 0x161 PUSH32 0xFFFFFFFFFFFFFFFFFFFFFFFFFFFFFFFFFFFFFFFFFFFFFFFFFFFFFFFFFFFFFFFF DUP3 PUSH3 0x122 JUMP JUMPDEST PUSH3 0x16D DUP7 DUP4 PUSH3 0x122 JUMP JUMPDEST SWAP6 POP DUP1 NOT DUP5 AND SWAP4 POP DUP1 DUP7 AND DUP5 OR SWAP3 POP POP POP SWAP4 SWAP3 POP POP POP JUMP JUMPDEST PUSH1 0x0 DUP2 SWAP1 POP SWAP2 SWAP1 POP JUMP JUMPDEST PUSH1 0x0 DUP2 SWAP1 POP SWAP2 SWAP1 POP JUMP JUMPDEST PUSH1 0x0 PUSH3 0x1BA PUSH3 0x1B4 PUSH3 0x1AE DUP5 PUSH3 0x185 JUMP JUMPDEST PUSH3 0x18F JUMP JUMPDEST PUSH3 0x185 JUMP JUMPDEST SWAP1 POP SWAP2 SWAP1 POP JUMP JUMPDEST PUSH1 0x0 DUP2 SWAP1 POP SWAP2 SWAP1 POP JUMP JUMPDEST PUSH3 0x1D6 DUP4 PUSH3 0x199 JUMP JUMPDEST PUSH3 0x1EE PUSH3 0x1E5 DUP3 PUSH3 0x1C1 JUMP JUMPDEST DUP5 DUP5 SLOAD PUSH3 0x12F JUMP JUMPDEST DUP3 SSTORE POP POP POP POP JUMP JUMPDEST PUSH1 0x0 SWAP1 JUMP JUMPDEST PUSH3 0x205 PUSH3 0x1F6 JUMP JUMPDEST PUSH3 0x212 DUP2 DUP5 DUP5 PUSH3 0x1CB JUMP JUMPDEST POP POP POP JUMP JUMPDEST JUMPDEST DUP2 DUP2 LT ISZERO PUSH3 0x23A JUMPI PUSH3 0x22E PUSH1 0x0 DUP3 PUSH3 0x1FB JUMP JUMPDEST PUSH1 0x1 DUP2 ADD SWAP1 POP PUSH3 0x218 JUMP JUMPDEST POP POP JUMP JUMPDEST PUSH1 0x1F DUP3 GT ISZERO PUSH3 0x289 JUMPI PUSH3 0x253 DUP2 PUSH3 0xFD JUMP JUMPDEST PUSH3 0x25E DUP5 PUSH3 0x112 JUMP JUMPDEST DUP2 ADD PUSH1 0x20 DUP6 LT ISZERO PUSH3 0x26E JUMPI DUP2 SWAP1 POP JUMPDEST PUSH3 0x286 PUSH3 0x27D DUP6 PUSH3 0x112 JUMP JUMPDEST DUP4 ADD DUP3 PUSH3 0x217 JUMP JUMPDEST POP POP JUMPDEST POP POP POP JUMP JUMPDEST PUSH1 0x0 DUP3 DUP3 SHR SWAP1 POP SWAP3 SWAP2 POP POP JUMP JUMPDEST PUSH1 0x0 PUSH3 0x2AE PUSH1 0x0 NOT DUP5 PUSH1 0x8 MUL PUSH3 0x28E JUMP JUMPDEST NOT DUP1 DUP4 AND SWAP2 POP POP SWAP3 SWAP2 POP POP JUMP JUMPDEST PUSH1 0x0 PUSH3 0x2C9 DUP4 DUP4 PUSH3 0x29B JUMP JUMPDEST SWAP2 POP DUP3 PUSH1 0x2 MUL DUP3 OR SWAP1 POP SWAP3 SWAP2 POP POP JUMP JUMPDEST PUSH3 0x2E4 DUP3 PUSH3 0x5F JUMP JUMPDEST PUSH8 0xFFFFFFFFFFFFFFFF DUP2 GT ISZERO PUSH3 0x300 JUMPI PUSH3 0x2FF PUSH3 0x6A JUMP JUMPDEST JUMPDEST PUSH3 0x30C DUP3 SLOAD PUSH3 0xC8 JUMP JUMPDEST PUSH3 0x319 DUP3 DUP3 DUP6 PUSH3 0x23E JUMP JUMPDEST PUSH1 0x0 PUSH1 0x20 SWAP1 POP PUSH1 0x1F DUP4 GT PUSH1 0x1 DUP2 EQ PUSH3 0x351 JUMPI PUSH1 0x0 DUP5 ISZERO PUSH3 0x33C JUMPI DUP3 DUP8 ADD MLOAD SWAP1 POP JUMPDEST PUSH3 0x348 DUP6 DUP3 PUSH3 0x2BB JUMP JUMPDEST DUP7 SSTORE POP PUSH3 0x3B8 JUMP JUMPDEST PUSH1 0x1F NOT DUP5 AND PUSH3 0x361 DUP7 PUSH3 0xFD JUMP JUMPDEST PUSH1 0x0 JUMPDEST DUP3 DUP2 LT ISZERO PUSH3 0x38B JUMPI DUP5 DUP10 ADD MLOAD DUP3 SSTORE PUSH1 0x1 DUP3 ADD SWAP2 POP PUSH1 0x20 DUP6 ADD SWAP5 POP PUSH1 0x20 DUP2 ADD SWAP1 POP PUSH3 0x364 JUMP JUMPDEST DUP7 DUP4 LT ISZERO PUSH3 0x3AB JUMPI DUP5 DUP10 ADD MLOAD PUSH3 0x3A7 PUSH1 0x1F DUP10 AND DUP3 PUSH3 0x29B JUMP JUMPDEST DUP4 SSTORE POP JUMPDEST PUSH1 0x1 PUSH1 0x2 DUP9 MUL ADD DUP9 SSTORE POP POP POP JUMPDEST POP POP POP POP POP POP JUMP JUMPDEST PUSH2 0x66F DUP1 PUSH3 0x3D0 PUSH1 0x0 CODECOPY PUSH1 0x0 RETURN INVALID PUSH1 0x80 PUSH1 0x40 MSTORE CALLVALUE DUP1 ISZERO PUSH2 0x10 JUMPI PUSH1 0x0 DUP1 REVERT JUMPDEST POP PUSH1 0x4 CALLDATASIZE LT PUSH2 0x36 JUMPI PUSH1 0x0 CALLDATALOAD PUSH1 0xE0 SHR DUP1 PUSH4 0xB00741CB EQ PUSH2 0x3B JUMPI DUP1 PUSH4 0xC19D93FB EQ PUSH2 0x57 JUMPI JUMPDEST PUSH1 0x0 DUP1 REVERT JUMPDEST PUSH2 0x55 PUSH1 0x4 DUP1 CALLDATASIZE SUB DUP2 ADD SWAP1 PUSH2 0x50 SWAP2 SWAP1 PUSH2 0x223 JUMP JUMPDEST PUSH2 0x75 JUMP JUMPDEST STOP JUMPDEST PUSH2 0x5F PUSH2 0x15A JUMP JUMPDEST PUSH1 0x40 MLOAD PUSH2 0x6C SWAP2 SWAP1 PUSH2 0x2E0 JUMP JUMPDEST PUSH1 0x40 MLOAD DUP1 SWAP2 SUB SWAP1 RETURN JUMPDEST PUSH1 0x0 DUP2 SUB PUSH2 0xC7 JUMPI PUSH1 0x40 MLOAD DUP1 PUSH1 0x40 ADD PUSH1 0x40 MSTORE DUP1 PUSH1 0x6 DUP2 MSTORE PUSH1 0x20 ADD PUSH32 0x6F6E53616C650000000000000000000000000000000000000000000000000000 DUP2 MSTORE POP PUSH1 0x0 SWAP1 DUP2 PUSH2 0xC1 SWAP2 SWAP1 PUSH2 0x53D JUMP JUMPDEST POP PUSH2 0x157 JUMP JUMPDEST PUSH1 0x1 DUP2 SUB PUSH2 0x119 JUMPI PUSH1 0x40 MLOAD DUP1 PUSH1 0x40 ADD PUSH1 0x40 MSTORE DUP1 PUSH1 0xA DUP2 MSTORE PUSH1 0x20 ADD PUSH32 0x6E6F74466F7253616C6500000000000000000000000000000000000000000000 DUP2 MSTORE POP PUSH1 0x0 SWAP1 DUP2 PUSH2 0x113 SWAP2 SWAP1 PUSH2 0x53D JUMP JUMPDEST POP PUSH2 0x156 JUMP JUMPDEST DUP1 PUSH1 0x40 MLOAD PUSH32 0xDF82C5F400000000000000000000000000000000000000000000000000000000 DUP2 MSTORE PUSH1 0x4 ADD PUSH2 0x14D SWAP2 SWAP1 PUSH2 0x61E JUMP JUMPDEST PUSH1 0x40 MLOAD DUP1 SWAP2 SUB SWAP1 REVERT JUMPDEST JUMPDEST POP JUMP JUMPDEST PUSH1 0x0 DUP1 SLOAD PUSH2 0x167 SWAP1 PUSH2 0x360 JUMP JUMPDEST DUP1 PUSH1 0x1F ADD PUSH1 0x20 DUP1 SWAP2 DIV MUL PUSH1 0x20 ADD PUSH1 0x40 MLOAD SWAP1 DUP2 ADD PUSH1 0x40 MSTORE DUP1 SWAP3 SWAP2 SWAP1 DUP2 DUP2 MSTORE PUSH1 0x20 ADD DUP3 DUP1 SLOAD PUSH2 0x193 SWAP1 PUSH2 0x360 JUMP JUMPDEST DUP1 ISZERO PUSH2 0x1E0 JUMPI DUP1 PUSH1 0x1F LT PUSH2 0x1B5 JUMPI PUSH2 0x100 DUP1 DUP4 SLOAD DIV MUL DUP4 MSTORE SWAP2 PUSH1 0x20 ADD SWAP2 PUSH2 0x1E0 JUMP JUMPDEST DUP3 ADD SWAP2 SWAP1 PUSH1 0x0 MSTORE PUSH1 0x20 PUSH1 0x0 KECCAK256 SWAP1 JUMPDEST DUP2 SLOAD DUP2 MSTORE SWAP1 PUSH1 0x1 ADD SWAP1 PUSH1 0x20 ADD DUP1 DUP4 GT PUSH2 0x1C3 JUMPI DUP3 SWAP1 SUB PUSH1 0x1F AND DUP3 ADD SWAP2 JUMPDEST POP POP POP POP POP DUP2 JUMP JUMPDEST PUSH1 0x0 DUP1 REVERT JUMPDEST PUSH1 0x0 DUP2 SWAP1 POP SWAP2 SWAP1 POP JUMP JUMPDEST PUSH2 0x200 DUP2 PUSH2 0x1ED JUMP JUMPDEST DUP2 EQ PUSH2 0x20B JUMPI PUSH1 0x0 DUP1 REVERT JUMPDEST POP JUMP JUMPDEST PUSH1 0x0 DUP2 CALLDATALOAD SWAP1 POP PUSH2 0x21D DUP2 PUSH2 0x1F7 JUMP JUMPDEST SWAP3 SWAP2 POP POP JUMP JUMPDEST PUSH1 0x0 PUSH1 0x20 DUP3 DUP5 SUB SLT ISZERO PUSH2 0x239 JUMPI PUSH2 0x238 PUSH2 0x1E8 JUMP JUMPDEST JUMPDEST PUSH1 0x0 PUSH2 0x247 DUP5 DUP3 DUP6 ADD PUSH2 0x20E JUMP JUMPDEST SWAP2 POP POP SWAP3 SWAP2 POP POP JUMP JUMPDEST PUSH1 0x0 DUP2 MLOAD SWAP1 POP SWAP2 SWAP1 POP JUMP JUMPDEST PUSH1 0x0 DUP3 DUP3 MSTORE PUSH1 0x20 DUP3 ADD SWAP1 POP SWAP3 SWAP2 POP POP JUMP JUMPDEST PUSH1 0x0 JUMPDEST DUP4 DUP2 LT ISZERO PUSH2 0x28A JUMPI DUP1 DUP3 ADD MLOAD DUP2 DUP5 ADD MSTORE PUSH1 0x20 DUP2 ADD SWAP1 POP PUSH2 0x26F JUMP JUMPDEST PUSH1 0x0 DUP5 DUP5 ADD MSTORE POP POP POP POP JUMP JUMPDEST PUSH1 0x0 PUSH1 0x1F NOT PUSH1 0x1F DUP4 ADD AND SWAP1 POP SWAP2 SWAP1 POP JUMP JUMPDEST PUSH1 0x0 PUSH2 0x2B2 DUP3 PUSH2 0x250 JUMP JUMPDEST PUSH2 0x2BC DUP2 DUP6 PUSH2 0x25B JUMP JUMPDEST SWAP4 POP PUSH2 0x2CC DUP2 DUP6 PUSH1 0x20 DUP7 ADD PUSH2 0x26C JUMP JUMPDEST PUSH2 0x2D5 DUP2 PUSH2 0x296 JUMP JUMPDEST DUP5 ADD SWAP2 POP POP SWAP3 SWAP2 POP POP JUMP JUMPDEST PUSH1 0x0 PUSH1 0x20 DUP3 ADD SWAP1 POP DUP2 DUP2 SUB PUSH1 0x0 DUP4 ADD MSTORE PUSH2 0x2FA DUP2 DUP5 PUSH2 0x2A7 JUMP JUMPDEST SWAP1 POP SWAP3 SWAP2 POP POP JUMP JUMPDEST PUSH32 0x4E487B7100000000000000000000000000000000000000000000000000000000 PUSH1 0x0 MSTORE PUSH1 0x41 PUSH1 0x4 MSTORE PUSH1 0x24 PUSH1 0x0 REVERT JUMPDEST PUSH32 0x4E487B7100000000000000000000000000000000000000000000000000000000 PUSH1 0x0 MSTORE PUSH1 0x22 PUSH1 0x4 MSTORE PUSH1 0x24 PUSH1 0x0 REVERT JUMPDEST PUSH1 0x0 PUSH1 0x2 DUP3 DIV SWAP1 POP PUSH1 0x1 DUP3 AND DUP1 PUSH2 0x378 JUMPI PUSH1 0x7F DUP3 AND SWAP2 POP JUMPDEST PUSH1 0x20 DUP3 LT DUP2 SUB PUSH2 0x38B JUMPI PUSH2 0x38A PUSH2 0x331 JUMP JUMPDEST JUMPDEST POP SWAP2 SWAP1 POP JUMP JUMPDEST PUSH1 0x0 DUP2 SWAP1 POP DUP2 PUSH1 0x0 MSTORE PUSH1 0x20 PUSH1 0x0 KECCAK256 SWAP1 POP SWAP2 SWAP1 POP JUMP JUMPDEST PUSH1 0x0 PUSH1 0x20 PUSH1 0x1F DUP4 ADD DIV SWAP1 POP SWAP2 SWAP1 POP JUMP JUMPDEST PUSH1 0x0 DUP3 DUP3 SHL SWAP1 POP SWAP3 SWAP2 POP POP JUMP JUMPDEST PUSH1 0x0 PUSH1 0x8 DUP4 MUL PUSH2 0x3F3 PUSH32 0xFFFFFFFFFFFFFFFFFFFFFFFFFFFFFFFFFFFFFFFFFFFFFFFFFFFFFFFFFFFFFFFF DUP3 PUSH2 0x3B6 JUMP JUMPDEST PUSH2 0x3FD DUP7 DUP4 PUSH2 0x3B6 JUMP JUMPDEST SWAP6 POP DUP1 NOT DUP5 AND SWAP4 POP DUP1 DUP7 AND DUP5 OR SWAP3 POP POP POP SWAP4 SWAP3 POP POP POP JUMP JUMPDEST PUSH1 0x0 DUP2 SWAP1 POP SWAP2 SWAP1 POP JUMP JUMPDEST PUSH1 0x0 PUSH2 0x43A PUSH2 0x435 PUSH2 0x430 DUP5 PUSH2 0x1ED JUMP JUMPDEST PUSH2 0x415 JUMP JUMPDEST PUSH2 0x1ED JUMP JUMPDEST SWAP1 POP SWAP2 SWAP1 POP JUMP JUMPDEST PUSH1 0x0 DUP2 SWAP1 POP SWAP2 SWAP1 POP JUMP JUMPDEST PUSH2 0x454 DUP4 PUSH2 0x41F JUMP JUMPDEST PUSH2 0x468 PUSH2 0x460 DUP3 PUSH2 0x441 JUMP JUMPDEST DUP5 DUP5 SLOAD PUSH2 0x3C3 JUMP JUMPDEST DUP3 SSTORE POP POP POP POP JUMP JUMPDEST PUSH1 0x0 SWAP1 JUMP JUMPDEST PUSH2 0x47D PUSH2 0x470 JUMP JUMPDEST PUSH2 0x488 DUP2 DUP5 DUP5 PUSH2 0x44B JUMP JUMPDEST POP POP POP JUMP JUMPDEST JUMPDEST DUP2 DUP2 LT ISZERO PUSH2 0x4AC JUMPI PUSH2 0x4A1 PUSH1 0x0 DUP3 PUSH2 0x475 JUMP JUMPDEST PUSH1 0x1 DUP2 ADD SWAP1 POP PUSH2 0x48E JUMP JUMPDEST POP POP JUMP JUMPDEST PUSH1 0x1F DUP3 GT ISZERO PUSH2 0x4F1 JUMPI PUSH2 0x4C2 DUP2 PUSH2 0x391 JUMP JUMPDEST PUSH2 0x4CB DUP5 PUSH2 0x3A6 JUMP JUMPDEST DUP2 ADD PUSH1 0x20 DUP6 LT ISZERO PUSH2 0x4DA JUMPI DUP2 SWAP1 POP JUMPDEST PUSH2 0x4EE PUSH2 0x4E6 DUP6 PUSH2 0x3A6 JUMP JUMPDEST DUP4 ADD DUP3 PUSH2 0x48D JUMP JUMPDEST POP POP JUMPDEST POP POP POP JUMP JUMPDEST PUSH1 0x0 DUP3 DUP3 SHR SWAP1 POP SWAP3 SWAP2 POP POP JUMP JUMPDEST PUSH1 0x0 PUSH2 0x514 PUSH1 0x0 NOT DUP5 PUSH1 0x8 MUL PUSH2 0x4F6 JUMP JUMPDEST NOT DUP1 DUP4 AND SWAP2 POP POP SWAP3 SWAP2 POP POP JUMP JUMPDEST PUSH1 0x0 PUSH2 0x52D DUP4 DUP4 PUSH2 0x503 JUMP JUMPDEST SWAP2 POP DUP3 PUSH1 0x2 MUL DUP3 OR SWAP1 POP SWAP3 SWAP2 POP POP JUMP JUMPDEST PUSH2 0x546 DUP3 PUSH2 0x250 JUMP JUMPDEST PUSH8 0xFFFFFFFFFFFFFFFF DUP2 GT ISZERO PUSH2 0x55F JUMPI PUSH2 0x55E PUSH2 0x302 JUMP JUMPDEST JUMPDEST PUSH2 0x569 DUP3 SLOAD PUSH2 0x360 JUMP JUMPDEST PUSH2 0x574 DUP3 DUP3 DUP6 PUSH2 0x4B0 JUMP JUMPDEST PUSH1 0x0 PUSH1 0x20 SWAP1 POP PUSH1 0x1F DUP4 GT PUSH1 0x1 DUP2 EQ PUSH2 0x5A7 JUMPI PUSH1 0x0 DUP5 ISZERO PUSH2 0x595 JUMPI DUP3 DUP8 ADD MLOAD SWAP1 POP JUMPDEST PUSH2 0x59F DUP6 DUP3 PUSH2 0x521 JUMP JUMPDEST DUP7 SSTORE POP PUSH2 0x607 JUMP JUMPDEST PUSH1 0x1F NOT DUP5 AND PUSH2 0x5B5 DUP7 PUSH2 0x391 JUMP JUMPDEST PUSH1 0x0 JUMPDEST DUP3 DUP2 LT ISZERO PUSH2 0x5DD JUMPI DUP5 DUP10 ADD MLOAD DUP3 SSTORE PUSH1 0x1 DUP3 ADD SWAP2 POP PUSH1 0x20 DUP6 ADD SWAP5 POP PUSH1 0x20 DUP2 ADD SWAP1 POP PUSH2 0x5B8 JUMP JUMPDEST DUP7 DUP4 LT ISZERO PUSH2 0x5FA JUMPI DUP5 DUP10 ADD MLOAD PUSH2 0x5F6 PUSH1 0x1F DUP10 AND DUP3 PUSH2 0x503 JUMP JUMPDEST DUP4 SSTORE POP JUMPDEST PUSH1 0x1 PUSH1 0x2 DUP9 MUL ADD DUP9 SSTORE POP POP POP JUMPDEST POP POP POP POP POP POP JUMP JUMPDEST PUSH2 0x618 DUP2 PUSH2 0x1ED JUMP JUMPDEST DUP3 MSTORE POP POP JUMP JUMPDEST PUSH1 0x0 PUSH1 0x20 DUP3 ADD SWAP1 POP PUSH2 0x633 PUSH1 0x0 DUP4 ADD DUP5 PUSH2 0x60F JUMP JUMPDEST SWAP3 SWAP2 POP POP JUMP INVALID LOG2 PUSH5 0x6970667358 0x22 SLT KECCAK256 MOD 0x2B PUSH25 0x3F423F64B4138005B95531808281DE11CBC4935F84B5DD9B47 MOD RETURNDATACOPY 0xD0 ORIGIN PUSH5 0x736F6C6343 STOP ADDMOD GT STOP CALLER "
				},
				"gasEstimates": {
					"creation": {
						"codeDepositCost": "329400",
						"executionCost": "infinite",
						"totalCost": "infinite"
					},
					"external": {
						"changeState(uint256)": "infinite",
						"state()": "infinite"
					}
				},
				"methodIdentifiers": {
					"changeState(uint256)": "b00741cb",
					"state()": "c19d93fb"
				}
			},
			"storageLayout": {
				"storage": [
					{
						"astId": 4,
						"contract": "Users/carlos/dev/apps/solidity-apps/09-errors.sol:Asset",
						"label": "state",
						"offset": 0,
						"slot": "0",
						"type": "t_string_storage"
					}
				],
				"types": {
					"t_string_storage": {
						"encoding": "bytes",
						"label": "string",
						"numberOfBytes": "32"
					}
				}
			},
			"userdoc": {
				"kind": "user",
				"methods": {},
				"version": 1
			}
		}
	}
}